S010000066343037766574362E737265638E
S31508000000000002203D1C00083D1A0008451A000899
S315080000104D1A0008551A00085D1A0008000000006D
S31508000020000000000000000000000000651A00083B
S31508000030731A000800000000811A00088F1A0008C9
S315080000408D1C00088D1C00088D1C00088D1C0008DE
S315080000508D1C00088D1C00088D1C00088D1C0008CE
S315080000608D1C00088D1C00088D1C00088D1C0008BE
S315080000708D1C00088D1C00088D1C00088D1C0008AE
S315080000808D1C00088D1C00088D1C00088D1C00089E
S315080000908D1C00088D1C00088D1C00088D1C00088E
S315080000A08D1C00088D1C00088D1C00088D1C00087E
S315080000B08D1C00088D1C00088D1C00088D1C00086E
S315080000C08D1C00088D1C00088D1C00088D1C00085E
S315080000D08D1C00088D1C00089D1A00088D1C000840
S315080000E08D1C00088D1C00088D1C00088D1C00083E
S315080000F08D1C00088D1C00088D1C00088D1C00082E
S315080001008D1C0008B11A00088D1C00088D1C0008FB
S315080001108D1C00088D1C00088D1C00088D1C00080D
S315080001208D1C00088D1C00088D1C00088D1C0008FD
S315080001308D1C00088D1C00088D1C00088D1C0008ED
S315080001408D1C00088D1C00088D1C00088D1C0008DD
S315080001508D1C00088D1C00088D1C00088D1C0008CD
S315080001608D1C00088D1C00088D1C00088D1C0008BD
S315080001708D1C00088D1C00088D1C0008000000005E
S30D080001808D1C00088D1C000807
S3150800019010B5054C237833B9044B13B10448AFF3B3
S315080001A000800123237010BDD40100200000000048
S315080001B02CE1000808B5034B1BB103490348AFF30C
S315080001C0008008BD00000000D80100202CE10008CE
S315080001D001F0FF01102A2BDB10F0070F08D010F8EA
S315080001E0013B013A8B422DD010F0070F42B3F6D1EE
S315080001F0F0B441EA012141EA014122F007047FF007
S3150800020000070023F0E80256083C85EA010586EA5D
S31508000210010685FA47F5A3FA87F586FA47F6A5FA99
S3150800022087F68EB9EED1F0BC01F0FF0102F00702A5
S3150800023032B110F8013B013A83EA010313B1F8D150
S315080002400020704701387047002D06BF3546033831
S31508000250073815F0010F07D1013015F4807F02BF6A
S31508000260013015F4C03F0130F0BC0138704700BFBB
S31508000270034613F8012B002AFBD1181A01387047D8
S3150800028081F0004102E000BF83F0004330B54FEA39
S3150800029041044FEA430594EA050F08BF90EA020FA6
S315080002A01FBF54EA000C55EA020C7FEA645C7FEA39
S315080002B0655C00F0E2804FEA5454D4EB5555B8BF5C
S315080002C06D420CDD2C4480EA020281EA030382EACD
S315080002D0000083EA010180EA020281EA0303362D5F
S315080002E088BF30BD11F0004F4FEA01314FF4801C32
S315080002F04CEA113102D0404261EB410113F0004F44
S315080003004FEA03334CEA133302D0524263EB4303FA
S3150800031094EA050F00F0A780A4F10104D5F1200E98
S315080003200DDB02FA0EFC22FA05F2801841F10001F3
S3150800033003FA0EF2801843FA05F359410EE0A5F1C7
S3150800034020050EF1200E012A03FA0EFC28BF4CF0F8
S31508000350020C43FA05F3C01851EBE37101F00045AE
S3150800036007D54FF0000EDCF1000C7EEB00006EEBBB
S315080003700101B1F5801F1BD3B1F5001F0CD3490845
S315080003805FEA30004FEA3C0C04F101044FEA44529C
S3150800039012F5800F80F09A80BCF1004F08BF5FEA23
S315080003A0500C50F1000041EB045141EA050130BD03
S315080003B05FEA4C0C404141EB0101013C28BFB1F515
S315080003C0801FE9D291F0000F04BF01460020B1FA60
S315080003D081F308BF2033A3F10B03B3F120020CDA33
S315080003E00C3208DD02F1140CC2F10C0201FA0CF011
S315080003F021FA02F10CE002F11402D8BFC2F1200C76
S3150800040001FA02F120FA0CFCDCBF41EA0C0190402B
S31508000410E41AA2BF01EB0451294330BD6FEA040474
S315080004201F3C1CDA0C340EDC04F11404C4F120025F
S3150800043020FA04F001FA02F340EA030021FA04F371
S3150800044045EA030130BDC4F10C04C4F1200220FAC8
S3150800045002F001FA04F340EA0300294630BD21FA06
S3150800046004F0294630BD94F0000F83F4801306BFCC
S3150800047081F480110134013D4EE77FEA645C18BFC0
S315080004807FEA655C29D094EA050F08BF90EA020F57
S3150800049005D054EA000C04BF1946104630BD91EA4F
S315080004A0030F1EBF0021002030BD5FEA545C05D152
S315080004B04000494128BF41F0004130BD14F5800491
S315080004C03CBF01F5801130BD01F0004545F0FE4105
S315080004D041F470014FF0000030BD7FEA645C1ABF3A
S315080004E0194610467FEA655C1CBF0B46024650EA71
S315080004F0013406BF52EA033591EA030F41F400219D
S3150800050030BD00BF90F0000F04BF0021704730B522
S315080005104FF4806404F132044FF000054FF00001F7
S3150800052050E700BF90F0000F04BF0021704730B5B8
S315080005304FF4806404F1320410F0004548BF40428D
S315080005404FF000013EE700BF42004FEAE2014FEAE2
S3150800055031014FEA02701FBF12F07F4393F07F4FBD
S3150800056081F06051704732F07F4208BF704793F0C0
S315080005707F4F04BF41F40021704730B54FF46074D3
S3150800058001F0004521F000411CE700BF50EA0102D6
S3150800059008BF704730B54FF000050AE050EA01027F
S315080005A008BF704730B511F0004502D5404261EBEF
S315080005B041014FF4806404F132045FEA915C3FF430
S315080005C0D8AE4FF003025FEADC0C18BF03325FEACD
S315080005D0DC0C18BF033202EBDC02C2F1200300FA7E
S315080005E003FC20FA02F001FA03FE40EA0E0021FAA3
S315080005F002F11444BDE600BF70B54FF0FF0C4CF491
S31508000600E06C1CEA11541DBF1CEA135594EA0C0F42
S3150800061095EA0C0F00F0DEF82C4481EA030621EA7D
S315080006204C5123EA4C5350EA013518BF52EA0335B8
S3150800063041F4801143F4801338D0A0FB02CE4FF06A
S315080006400005E1FB02E506F00042E0FB03E54FF09A
S315080006500006E1FB03569CF0000F18BF4EF0010E92
S31508000660A4F1FF04B6F5007F64F5407404D25FEA8E
S315080006704E0E6D4146EB060642EAC62141EA555141
S315080006804FEAC52040EA5E504FEACE2EB4F1FD0C83
S3150800069088BFBCF5E06F1ED8BEF1004F08BF5FEA01
S315080006A0500E50F1000041EB045170BD06F00046B3
S315080006B046EA010140EA020081EA0301B4EB5C0460
S315080006C0C2BFD4EB0C0541EA045170BD41F4801158
S315080006D04FF0000E013C00F3AB8014F1360FDEBF7D
S315080006E0002001F0004170BDC4F10004203C35DA59
S315080006F00C341BDC04F11404C4F1200500FA05F3DC
S3150800070020FA04F001FA05F240EA020001F000427C
S3150800071021F0004110EBD37021FA04F642EB0601F2
S315080007205EEA430E08BF20EAD37070BDC4F10C041C
S31508000730C4F1200500FA04F320FA05F001FA04F2E0
S3150800074040EA020001F0004110EBD37041F10001CC
S315080007505EEA430E08BF20EAD37070BDC4F12005D7
S3150800076000FA05F24EEA020E20FA04F301FA05F23F
S3150800077043EA020321FA04F001F0004121FA04F2E7
S3150800078020EA020000EBD3705EEA430E08BF20EAB7
S31508000790D37070BD94F0000F0FD101F000464000F1
S315080007A041EB010111F4801F08BF013CF7D041EA73
S315080007B0060195F0000F18BF704703F00046520077
S315080007C043EB030313F4801F08BF013DF7D043EA48
S315080007D00603704794EA0C0F0CEA135518BF95EAFE
S315080007E00C0F0CD050EA410618BF52EA4306D1D185
S315080007F081EA030101F000414FF0000070BD50EAA4
S31508000800410606BF1046194652EA430619D094EA2D
S315080008100C0F02D150EA013613D195EA0C0F05D117
S3150800082052EA03361CBF104619460AD181EA03016B
S3150800083001F0004141F0FE4141F470014FF0000023
S3150800084070BD41F0FE4141F4780170BD70B54FF0BE
S31508000850FF0C4CF4E06C1CEA11541DBF1CEA13553E
S3150800086094EA0C0F95EA0C0F00F0A7F8A4EB050420
S3150800087081EA030E52EA03354FEA013100F0888017
S315080008804FEA03334FF0805545EA131343EA1263E0
S315080008904FEA022245EA111545EA10654FEA002695
S315080008A00EF000419D4208BF964244F1FD0404F54E
S315080008B0407402D25B084FEA3202B61A65EB0305AA
S315080008C05B084FEA32024FF480104FF4002CB6EB67
S315080008D0020E75EB030E22BFB61A754640EA0C00E7
S315080008E05B084FEA3202B6EB020E75EB030E22BF27
S315080008F0B61A754640EA5C005B084FEA3202B6EB68
S31508000900020E75EB030E22BFB61A754640EA9C0026
S315080009105B084FEA3202B6EB020E75EB030E22BFF6
S31508000920B61A754640EADC0055EA060E18D04FEAB4
S31508000930051545EA16754FEA06164FEAC30343EA54
S3150800094052734FEAC2025FEA1C1CC0D111F4801F21
S315080009500BD141EA00014FF000004FF0004CB6E71A
S3150800096011F4801F04BF01430020B4F1FD0C88BFB9
S31508000970BCF5E06F3FF6AFAEB5EB030C04BFB6EBC4
S31508000980020C5FEA500C50F1000041EB045170BDB7
S315080009900EF0004E4EEA113114EB5C04C2BFD4EBE4
S315080009A00C0541EA045170BD41F480114FF0000E68
S315080009B0013C90E645EA060E8DE60CEA135594EAE4
S315080009C00C0F08BF95EA0C0F3FF43BAF94EA0C0FE7
S315080009D00AD150EA01347FF434AF95EA0C0F7FF45C
S315080009E025AF104619462CE795EA0C0F06D152EAB0
S315080009F003353FF4FDAE1046194622E750EA410694
S31508000A0018BF52EA43067FF4C5AE50EA41047FF4A4
S31508000A100DAF52EA43057FF4EBAE12E74FF0FF3C09
S31508000A2006E000BF4FF0010C02E000BF4FF0010CDA
S31508000A304DF804CD4FEA410C7FEA6C5C4FEA430C53
S31508000A4018BF7FEA6C5C1BD001B050EA410C0CBFA2
S31508000A5052EA430C91EA030F02BF90EA020F002004
S31508000A60704710F1000F91EA030F58BF994208BF6B
S31508000A7090422CBFD8176FEAE37040F00100704728
S31508000A804FEA410C7FEA6C5C02D150EA013C07D17F
S31508000A904FEA430C7FEA6C5CD6D152EA033CD3D0CA
S31508000AA05DF8040B704700BF8446104662468C46C4
S31508000AB01946634600E000BF01B5FFF7B7FF0028F7
S31508000AC048BF10F1000F01BD4DF808EDFFF7F4FF20
S31508000AD00CBF012000205DF808FB00BF4DF808EDAB
S31508000AE0FFF7EAFF34BF012000205DF808FB00BFCE
S31508000AF04DF808EDFFF7E0FF94BF012000205DF8F0
S31508000B0008FB00BF4DF808EDFFF7CEFF94BF0120A4
S31508000B1000205DF808FB00BF4DF808EDFFF7C4FF9D
S31508000B2034BF012000205DF808FB00BF4FEA410CE6
S31508000B307FEA6C5C02D150EA013C0AD14FEA430CC9
S31508000B407FEA6C5C02D152EA033C02D14FF0000006
S31508000B5070474FF0010070474FEA410212F5001244
S31508000B6015D211D56FF47873B3EB625212D94FEAE6
S31508000B70C12343F0004343EA505311F0004F23FAD0
S31508000B8002F018BF404270474FF00000704750EA25
S31508000B90013005D111F0004008BF6FF000407047E2
S31508000BA04FF00000704700BF4A0011D212F500123C
S31508000BB011D20DD56FF47873B3EB62520ED44FEAA7
S31508000BC0C12343F0004343EA505323FA02F0704727
S31508000BD04FF00000704750EA013002D14FF0FF3065
S31508000BE070474FF0000070474FEA4102B2F1E04308
S31508000BF024BFB3F5001CDCF1FE5C0DD901F0004CF6
S31508000C004FEAC0024CEA5070B2F1004F40EB830045
S31508000C1008BF20F00100704711F0804F21D113F171
S31508000C203872BCBF01F00040704741F480114FEAAA
S31508000C305252C2F11802C2F1200C10FA0CF320FA33
S31508000C4002F018BF40F001004FEAC1234FEAD32350
S31508000C5003FA0CFC40EA0C0023FA02F34FEA4303BA
S31508000C60CCE77FEA625307D150EA01331EBF4FF043
S31508000C70FE4040F44000704701F0004040F0FE405E
S31508000C8040F40000704700BF53B94AB9002908BFAD
S31508000C9000281CBF4FF0FF314FF0FF3000F0BEB9FF
S31508000CA0ADF1080C6DE904CE00F03CF8DDF804E07F
S31508000CB0DDE9022304B0704738B500220023044654
S31508000CC00D46FFF70BFF28B920462946BDE83840F0
S31508000CD000F00AB8204605F1004100F005F8404248
S31508000CE061EB410138BD00BFD0B50C4B002206466A
S31508000CF00F46FFF781FCFFF757FF0446FFF702FC94
S31508000D00074B0022FFF778FC02460B463046394669
S31508000D10FFF7BAFAFFF748FF2146D0BD0000F03DBD
S31508000D200000F0412DE9F047089D8E4604468846A6
S31508000D30002B4AD18A42174662D9B2FA82F64EB1D8
S31508000D40C6F1200301FA06F820FA03F3B74043EA8E
S31508000D500808B4404FEA174E1FFA87FCB8FBFEF1A5
S31508000D60230C0EFB118843EA084301FB0CF29A4256
S31508000D7009D9FB1801F1FF3080F0EA809A4240F267
S31508000D80E78002393B449A1AA3B2B2FBFEF00EFB87
S31508000D90102243EA024300FB0CFC9C4509D9FB18C8
S31508000DA000F1FF3280F0D6809C4540F2D3803B4468
S31508000DB0023840EA0140A3EB0C0300211DB1F340C1
S31508000DC00022C5E90032BDE8F0878B4205D90DB18E
S31508000DD0C5E9000100210846F5E7B3FA83F10029C1
S31508000DE046D1734502D3824200F20581841A6EEB1E
S31508000DF0030201209046002DE5D0C5E90048E2E748
S31508000E00002A00F09080B2FA82F6002E40F0A48004
S31508000E108A1A030C4FEA174E80B2BCB20121B2FB04
S31508000E20FEFC0EFB1C2243EA024304FB0CF29A4228
S31508000E3007D9FB180CF1FF3802D29A4200F2E0807B
S31508000E40C4469B1AB3FBFEF20EFB123340EA034379
S31508000E5002FB04F49C4207D9FB1802F1FF3002D2C8
S31508000E609C4200F2CA8002461B1B42EA0C40A5E7D8
S31508000E70C1F120068B4022FA06F71F430EFA01F449
S31508000E8020FA06F32EFA06FE4FEA1749234300FA1C
S31508000E9001F81FFA87FCBEFBF9F01C0C09FB10EEE3
S31508000EA044EA0E4400FB0CFEA64502FA01F209D9F3
S31508000EB03C1900F1FF3A80F09C80A64540F29980E3
S31508000EC002383C44A4EB0E041FFA83FEB4FBF9F384
S31508000ED009FB13444EEA044403FB0CFCA44508D959
S31508000EE03C1903F1FF3E80F08280A4457FD9023B7E
S31508000EF03C4443EA0040A4EB0C04A0FB02EC644526
S31508000F007346E14662D35FD05DB1B8EB030264EB8A
S31508000F10090404FA06F622FA01F31E43CC40C5E991
S31508000F20006400214FE7B1FBF2FC010C41EA0E41D7
S31508000F3080B240EA01423B4638463C46B846BE4681
S31508000F402026B1FBF7F1A2EB080241EA0C4166E75D
S31508000F50014618E710462CE7C6F120022EFA02F3DE
S31508000F60B740B14020FA02F24FEA174E0A43B3FBE4
S31508000F70FEF8BCB20EFB1833110C41EA034108FB1C
S31508000F8004F9B04089454FEA104380B23ED9791832
S31508000F9008F1FF3C01D289451FD8A1EB0901B1FB35
S31508000FA0FEF909FB04F80EFB191192B242EA014256
S31508000FB0424529D2BA1809F1FF31C4D24245C2D2F4
S31508000FC0A9F102013A44BEE7F0459DD2BEEB020301
S31508000FD06CEB070C0138E14696E7A7EB090949448B
S31508000FE0A8F1020CB1FBFEF909FB04F8DBE773462E
S31508000FF07FE7504666E70846FDE63B44023A33E794
S31508001000ACF1020C3B441CE749469CE7A1EB0901FD
S31508001010C446B1FBFEF909FB04F8C4E7704700BFF4
S3150800102080B586B000AFF860B9607A6000237B614E
S315080010300AE07B69BA68134401221946002008F0C1
S315080010401DFC7B6901337B617A697B689A42F0DB18
S315080010507B6818461837BD4680BD000080B582B04B
S3150800106000AF1E4809F018FC00F012FE00F03CF82C
S3150800107000F018F900F0C2F800F0EAF800F09CF861
S3150800108004F0E6FC0023FB71882008F01DFC00F044
S3150800109059F901224021124808F050FCE82008F0CE
S315080010A013FC002240210E4808F048FC012280214A
S315080010B00B4808F043FCE82008F006FC00228021D3
S315080010C0074808F03BFCFB791946064809F07CFB03
S315080010D0FB790133FB7100BFDBE700BF48E100087D
S315080010E0000002406CE1000880B594B000AF07F13B
S315080010F0200330220021184609F0D0FC07F10C0322
S3150800110000221A605A609A60DA601A610023BB608E
S31508001110274B1B6C264A43F080531364244B1B6CE5
S3150800112003F08053BB60BB6800237B60214B1B68C0
S31508001130204A43F4804313601E4B1B6803F4804324
S315080011407B607B6802233B620123FB6210233B63BF
S315080011500223BB630023FB6310233B64C0237B6429
S315080011600223BB640423FB6407F12003184601F03D
S315080011707FF90346002B01D000F02CFB0F23FB6000
S3150800118000233B6100237B610023BB610023FB61D5
S3150800119007F10C030021184601F0E2FB0346002B79
S315080011A001D000F017FB00BF5037BD4680BD00BF19
S315080011B0003802400070004080B400AF0D4B0E4A64
S315080011C01A600C4B00225A600A4B00229A60094B9F
S315080011D00022DA60074B00221A61064B4FF4804260
S315080011E05A61044B00229A6100BFBD465DF8047B34
S315080011F0704700BFF0010020002C014080B500AF09
S31508001200114B124A1A60104B4FF4E1325A600E4BDA
S3150800121000229A600C4B0022DA600B4B00221A61FE
S31508001220094B0C225A61084B00229A61064B002290
S31508001230DA61054802F0A8FF0346002B01D000F04A
S31508001240C9FA00BF80BD00BF74020020001001402B
S3150800125080B500AF114B124A1A60104B4FF4E132B9
S315080012605A600E4B00229A600C4B0022DA600B4B38
S3150800127000221A61094B0C225A61084B00229A6116
S31508001280064B0022DA61054802F07EFF0346002B72
S3150800129001D000F09FFA00BF80BD00BFBC0200204D
S315080012A00044004080B588B000AF07F10C03002267
S315080012B01A605A609A60DA601A610023BB601F4B95
S315080012C01B6B1E4A43F0010313631C4B1B6B03F095
S315080012D00103BB60BB6800237B60184B1B6B174A76
S315080012E043F004031363154B1B6B03F004037B6085
S315080012F07B6800233B60114B1B6B104A43F00803C5
S3150800130013630E4B1B6B03F008033B603B6800221C
S31508001310C0210B4801F092F8C023FB6001233B6112
S3150800132000237B610023BB6107F10C0319460448BF
S3150800133000F0E8FE00BF2037BD4680BD00380240F9
S3150800134000000240B0B5ADF5055D84B000AF07F505
S31508001350885303F11003043B0122B149184607F0EC
S3150800136055F8034607F5055202F10F02137007F503
S31508001370055303F10F031B78002B09D007F5055316
S3150800138003F10F031B781946A64809F01DFAE2E196
S31508001390A54809F081FA07F58872383A07F1D003AB
S315080013A0043B1946A14807F0DAFD034607F505523E
S315080013B002F10F02137007F5055303F10F031B78AB
S315080013C0002B09D007F5055303F10F031B781946BF
S315080013D0974809F0F9F9BEE107F5A87353F8783C80
S315080013E0DB69023B07F5A87252F8782C528902FB92
S315080013F003F35B0207F5055202F10802136007F5CD
S31508001400A87353F8783C5B891A4607F5A87353F80E
S31508001410843C02FB03F35B0207F5055202F1040262
S31508001420136007F5055303F108031868FFF76AF810
S315080014304FF000027F4BFFF709FA02460B4607F505
S31508001440055101F1080109687B4809F0BDF907F55E
S31508001450055303F104031868FFF754F84FF0000228
S31508001460744BFFF7F3F902460B4607F5055101F1F0
S3150800147004010968714809F0A7F907F58873343B30
S315080014800B226F49184607F007F8034607F5055279
S3150800149002F10F02137007F5055303F10F031B78CA
S315080014A0002B09D007F5055303F10F031B781946DE
S315080014B0644809F089F94EE1634809F0EDF907F542
S315080014C08873343B1946614807F020FF07F110037B
S315080014D00C3B5F4A1C4615460FCD0FC40FCD0FC4F3
S315080014E02B68236007F110030C3B1846FEF7C0FE75
S315080014F0024607F1D00307F110010C3907F5887089
S31508001500343807F0F0FA534809F0C6F907F5887336
S31508001510343B184607F0F9FC07F58873343B01227B
S315080015204749184606F0B8FF034607F5055202F183
S315080015300F02137007F5055303F10F031B78002BF1
S3150800154009D007F5055303F10F031B7819464248DE
S3150800155009F03AF9FFE0414809F09EF907F110034E
S315080015600C3BC8220021184609F098FA07F5A8731B
S3150800157053F8682C07F588733C3B07F110010C39C2
S3150800158007F58870343807F04FF907F5A87353F84C
S315080015907C3C002B0FD007F5A87353F87C3CC72B6F
S315080015A009D807F5A87353F87C3C07F5A872A2F585
S315080015B0A6720021D1542A4809F06EF907F11003E2
S315080015C00C3B1946274809F0FFF8274809F064F943
S315080015D007F58873343B184607F097FC234809F04B
S315080015E05BF907F58873343B32221549184606F02D
S315080015F053FF034607F5055202F10F02137007F56C
S31508001600055303F10F031B78002B33D007F5055359
S3150800161003F10F031B781946154809F0D5F89AE027
S3150800162080E1000888E10008BCE10008DCE1000868
S31508001630E0E100080000304114E2000840E200083A
S315080016406CE200087CE20008BCE20008F8E2000848
S315080016501CE3000840E3000860E30008A8E300086C
S31508001660D0E3000808E400080CE4000844E4000895
S3150800167064E4000807F58873343B1946484807F0C0
S3150800168045FE034607F5055202F10F02137007F5EA
S315080016908873343B184607F038FC424809F0FCF8D2
S315080016A007F58873343B01223F49184606F0F4FED5
S315080016B0034607F5055202F10F02137007F11003EE
S315080016C00C3BC8220021184609F0E8F907F5A8736B
S315080016D053F8682C07F588733C3B07F110010C3961
S315080016E007F58870343807F09FF8304809F0D4F8C1
S315080016F02F4809F0D1F807F110030C3B19462D487D
S3150800170009F062F82C4809F0C7F807F58873343BE6
S31508001710184607F0FAFB294809F0BEF8224807F0F0
S31508001720D3FC034607F5055202F10F02137007F5BD
S31508001730055303F10F031B78002B09D007F5055352
S3150800174003F10F031B7819461D4809F03DF802E01E
S315080017501C4809F0A1F800221B49002006F056FE95
S31508001760034607F5055202F10F02137007F50553F4
S3150800177003F10F031B78002B09D007F5055303F176
S315080017800F031B781946114809F01EF802E01048A5
S3150800179009F082F800BF07F505571037BD46B0BDFA
S315080017A0A0E40008CCE400086CE20008DCE40008C9
S315080017B0D0E3000808E400080CE400080CE500087B
S315080017C02CE5000860E5000880E100087CE50008D3
S315080017D0B4E5000880B400AF72B600BF00BFFDE7ED
S315080017E080B483B000AF00237B60104B5B6C0F4A5C
S315080017F043F4804353640D4B5B6C03F480437B6076
S315080018007B6800233B60094B1B6C084A43F08053F6
S315080018101364064B1B6C03F080533B603B6800BFA8
S315080018200C37BD465DF8047B704700BF00380240A0
S3150800183080B58AB000AF786007F1140300221A60F9
S315080018405A609A60DA601A617B681B68354A934267
S3150800185063D100233B61344B5B6C334A43F400632A
S315080018605364314B5B6C03F400633B613B690023B3
S31508001870FB602D4B1B6B2C4A43F0040313632A4B66
S315080018801B6B03F00403FB60FB680023BB60264B5D
S315080018901B6B254A43F008031363234B1B6B03F0AA
S315080018A00803BB60BB684FF480737B610223BB618E
S315080018B00123FB6103233B620C237B6207F11403BC
S315080018C019461A4800F01EFC4FF480537B61022328
S315080018D0BB610023FB6103233B620C237B6207F198
S315080018E014031946114800F00DFC04237B610223FA
S315080018F0BB610123FB6103233B620C237B6207F177
S31508001900140319460A4800F0FDFB00220021312085
S3150800191000F02FFB312000F048FB00BF2837BD46FA
S3150800192080BD00BF002C014000380240000802407C
S31508001930000C024080B58CB000AF786007F11C033C
S3150800194000221A605A609A60DA601A617B681B681E
S31508001950364A93422DD10023BB61354B5B6C344A22
S3150800196043F010035364324B5B6C03F01003BB6106
S31508001970BB6900237B612E4B1B6B2D4A43F0010389
S3150800198013632B4B1B6B03F001037B617B694FF4DD
S31508001990C063FB6102233B6200237B620323BB62B5
S315080019A00723FB6207F11C031946224800F0AAFB2D
S315080019B038E07B681B68204A934233D100233B6199
S315080019C01B4B1B6C1A4A43F400331364184B1B6CED
S315080019D003F400333B613B690023FB60144B1B6B2C
S315080019E0134A43F001031363114B1B6B03F0010306
S315080019F0FB60FB680C23FB6102233B6200237B62CE
S31508001A000323BB620723FB6207F11C031946094837
S31508001A1000F078FB00220021262000F0AAFA2620F2
S31508001A2000F0C3FA00BF3037BD4680BD0010014044
S31508001A3000380240000002400044004080B400AF75
S31508001A4000BFFDE780B400AF00BFFDE780B400AF7C
S31508001A5000BFFDE780B400AF00BFFDE780B400AF6C
S31508001A6000BFFDE780B400AF00BFBD465DF8047B4C
S31508001A70704780B400AF00BFBD465DF8047B704771
S31508001A8080B400AF00BFBD465DF8047B704780B5E3
S31508001A9000AF00F04FF900BF80BD000080B500AF71
S31508001AA0024802F0C1FB00BF80BD00BFBC02002097
S31508001AB080B500AF024801F04FFD00BF80BD00BFF2
S31508001AC0F001002080B400AF01231846BD465DF83A
S31508001AD0047B704780B582B000AF7860396009F042
S31508001AE02FF8034616221A604FF0FF3318460837B8
S31508001AF0BD4680BD80B582B000AF78604FF0FF313B
S31508001B007868FFF7E7FF00BFFDE780B586B000AF4E
S31508001B10F860B9607A6000237B610AE0AFF3008061
S31508001B200146BB685A1CBA60CAB21A707B6901338F
S31508001B307B617A697B689A42F0DB7B6818461837BE
S31508001B40BD4680BD80B483B000AF78604FF0FF33E8
S31508001B5018460C37BD465DF8047B704780B483B0E1
S31508001B6000AF786039603B684FF400525A60002332
S31508001B7018460C37BD465DF8047B704780B483B0C1
S31508001B8000AF7860012318460C37BD465DF8047B24
S31508001B90704780B485B000AFF860B9607A600023FA
S31508001BA018461437BD465DF8047B704780B586B085
S31508001BB000AF7860144A154BD31A7B617B693B6189
S31508001BC0134B1B68002B02D1114B124A1A60104B9B
S31508001BD01A687B6813443A699A4207D208F0B0FF3C
S31508001BE003460C221A604FF0FF3309E0084B1B68C6
S31508001BF0FB60074B1A687B681344054A1360FB6849
S31508001C0018461837BD4680BD0000022000040000B3
S31508001C1004030020500B002080B400AF064BD3F815
S31508001C208830054A43F47003C2F8883000BFBD46C1
S31508001C305DF8047B704700BF00ED00E0DFF834D0A4
S31508001C40FFF7EAFF0C480D490D4A002302E0D45875
S31508001C50C4500433C4188C42F9D30A4A0A4C0023E8
S31508001C6001E013600432A242FBD308F06FFFFFF7CE
S31508001C70F5F970470000022000000020D40100207A
S31508001C80F4EE0008D40100204C0B0020FEE700000B
S31508001C9080B500AF0E4B1B680D4A43F40073136002
S31508001CA00B4B1B680A4A43F480631360084B1B6896
S31508001CB0074A43F480731360032000F04FF90F209E
S31508001CC000F008F8FFF78CFD0023184680BD00BF1A
S31508001CD0003C024080B582B000AF7860124B1A68AB
S31508001CE0124B1B7819464FF47A73B3FBF1F3B2FB28
S31508001CF0F3F3184600F067F90346002B01D00123D9
S31508001D000EE07B680F2B0AD8002279684FF0FF3067
S31508001D1000F02FF9064A7B681360002300E00123D0
S31508001D2018460837BD4680BD000000200800002080
S31508001D300400002080B400AF064B1B781A46064BF9
S31508001D401B681344044A136000BFBD465DF8047B54
S31508001D50704700BF080000200803002080B400AFC9
S31508001D60034B1B681846BD465DF8047B704700BFE9
S31508001D700803002080B584B000AF7860FFF7EEFF57
S31508001D80B8607B68FB60FB68B3F1FF3F05D00A4B80
S31508001D901B781A46FB681344FB6000BFFFF7DEFF9B
S31508001DA00246BB68D31AFA689A42F7D800BF00BF42
S31508001DB01037BD4680BD00BF0800002080B485B03E
S31508001DC000AF78607B6803F00703FB600C4BDB68A9
S31508001DD0BB60BA684FF6FF031340BB60FB681A0284
S31508001DE0BB68134343F0BF6343F40033BB60044A44
S31508001DF0BB68D36000BF1437BD465DF8047B7047E7
S31508001E0000ED00E080B400AF044BDB681B0A03F06A
S31508001E1007031846BD465DF8047B704700ED00E0F1
S31508001E2080B483B000AF0346FB7197F90730002BE7
S31508001E300BDBFB7903F01F02074997F907305B09AB
S31508001E40012000FA02F241F8232000BF0C37BD46F4
S31508001E505DF8047B704700BF00E100E080B483B002
S31508001E6000AF03463960FB7197F90730002B0ADB90
S31508001E703B68DAB20C4997F907301201D2B20B4423
S31508001E8083F800230AE03B68DAB20849FB7903F0D5
S31508001E900F03043B1201D2B20B441A7600BF0C376B
S31508001EA0BD465DF8047B704700E100E000ED00E008
S31508001EB080B489B000AFF860B9607A60FB6803F057
S31508001EC00703FB61FB69C3F10703042B28BF04233F
S31508001ED0BB61FB690433062B02D9FB69033B00E0AF
S31508001EE000237B614FF0FF32BB6902FA03F3DA4342
S31508001EF0BB681A407B699A404FF0FF317B6901FA4B
S31508001F0003F3D9437B680B40134318462437BD4671
S31508001F105DF8047B7047000080B582B000AF78603A
S31508001F207B68013BB3F1807F01D301230FE00A4AA6
S31508001F307B68013B53600F214FF0FF30FFF78EFFA0
S31508001F40054B00229A60044B07221A6000231846A4
S31508001F500837BD4680BD00BF10E000E080B582B0FE
S31508001F6000AF78607868FFF729FF00BF0837BD46DD
S31508001F7080BD80B586B000AF0346B9607A60FB7352
S31508001F8000237B61FFF73EFF78617A68B968786954
S31508001F90FFF78EFF024697F90F3011461846FFF7EE
S31508001FA05DFF00BF1837BD4680BD80B582B000AF63
S31508001FB00346FB7197F907301846FFF731FF00BF54
S31508001FC00837BD4680BD80B582B000AF78607868B6
S31508001FD0FFF7A2FF034618460837BD4680BD80B501
S31508001FE084B000AF78607B689B6DFB60FFF7B6FE38
S31508001FF0B8607B6893F83530DBB2022B08D07B6873
S3150800200080225A657B68002283F83420012352E037
S315080020107B681B681A687B681B6822F016021A60C0
S315080020207B681B685A697B681B6822F080025A61C4
S315080020307B681B6C002B03D17B689B6C002B07D03D
S315080020407B681B681A687B681B6822F008021A609E
S315080020507B681B681A687B681B6822F001021A6095
S3150800206013E0FFF77BFE0246BB68D31A052B0CD993
S315080020707B6820225A657B68032283F835207B68B3
S31508002080002283F83420032315E07B681B681B684D
S3150800209003F00103002BE4D17B68DB6D3F229A40F5
S315080020A0FB689A607B68012283F835207B680022EA
S315080020B083F83420002318461037BD4680BD80B407
S315080020C083B000AF78607B6893F83530DBB2022BBB
S315080020D004D07B6880225A6501230CE07B680522C0
S315080020E083F835207B681B681A687B681B6822F0B2
S315080020F001021A60002318460C37BD465DF8047BBA
S315080021007047000080B489B000AF7860396000235A
S315080021107B6100233B610023BB610023FB616BE10C
S315080021200122FB6902FA03F37B613B681B687A6943
S3150800213013403B613A697B699A4240F05A813B6891
S315080021405B6803F00303012B05D03B685B6803F06B
S315080021500303022B30D17B689B68BB61FB695B007C
S31508002160032202FA03F3DB43BA691340BB613B68F7
S31508002170DA68FB695B0002FA03F3BA691343BB61C9
S315080021807B68BA699A607B685B68BB610122FB69F8
S3150800219002FA03F3DB43BA691340BB613B685B6829
S315080021A01B0903F00102FB6902FA03F3BA69134338
S315080021B0BB617B68BA695A603B685B6803F00303D6
S315080021C0032B17D07B68DB68BB61FB695B000322C6
S315080021D002FA03F3DB43BA691340BB613B689A68AA
S315080021E0FB695B0002FA03F3BA691343BB617B68B8
S315080021F0BA69DA603B685B6803F00303022B23D1F4
S31508002200FB69DA087B68083253F82230BB61FB6940
S3150800221003F007039B000F2202FA03F3DB43BA69B4
S315080022201340BB613B681A69FB6903F007039B000F
S3150800223002FA03F3BA691343BB61FB69DA087B68E0
S315080022400832B96943F822107B681B68BB61FB69D1
S315080022505B00032202FA03F3DB43BA691340BB614E
S315080022603B685B6803F00302FB695B0002FA03F351
S31508002270BA691343BB617B68BA691A603B685B68D5
S3150800228003F44033002B00F0B4800023FB60604B5E
S315080022905B6C5F4A43F4804353645D4B5B6C03F4A9
S315080022A08043FB60FB685B4AFB699B08023352F874
S315080022B02330BB61FB6903F003039B000F2202FA7C
S315080022C003F3DB43BA691340BB617B68524A934206
S315080022D02BD07B68514A934225D07B68504A93425B
S315080022E01FD07B684F4A934219D07B684E4A934267
S315080022F013D07B684D4A93420DD07B684C4A934273
S3150800230007D07B684B4A934201D107230EE0082386
S315080023100CE006230AE0052308E0042306E003236D
S3150800232004E0022302E0012300E00023FA6902F038
S31508002330030292009340BA691343BB613549FB69AE
S315080023409B080233BA6941F823203B4B9B68BB6163
S315080023503B69DB43BA691340BB613B685B6803F4BE
S315080023608013002B03D0BA693B691343BB61324A19
S31508002370BB699360304BDB68BB613B69DB43BA6979
S315080023801340BB613B685B6803F40013002B03D062
S31508002390BA693B691343BB61274ABB69D360264BBD
S315080023A05B68BB613B69DB43BA691340BB613B6849
S315080023B05B6803F40033002B03D0BA693B69134307
S315080023C0BB611D4ABB6953601B4B1B68BB613B69FC
S315080023D0DB43BA691340BB613B685B6803F480332F
S315080023E0002B03D0BA693B691343BB61124ABB6928
S315080023F01360FB690133FB61FB690F2B7FF690AE17
S3150800240000BF00BF2437BD465DF8047B704700BF98
S315080024100038024000380140000002400004024033
S3150800242000080240000C024000100240001402405E
S3150800243000180240001C0240003C014080B483B0F2
S3150800244000AF78600B467B8013467B707B78002B49
S3150800245003D07A887B689A6103E07B881A047B68D4
S315080024609A6100BF0C37BD465DF8047B70470000D3
S3150800247080B586B000AF78607B68002B01D1012358
S3150800248067E27B681B6803F00103002B75D0884B55
S315080024909B6803F00C03042B0CD0854B9B6803F058
S315080024A00C03082B12D1824B5B6803F48003B3F547
S315080024B0800F0BD17E4B1B6803F40033002B5BD0D7
S315080024C07B685B68002B57D1012342E27B685B6817
S315080024D0B3F5803F06D1764B1B68754A43F48033C3
S315080024E013601DE07B685B68B3F5A02F0CD1704BB9
S315080024F01B686F4A43F4802313606D4B1B686C4A54
S3150800250043F4803313600BE0694B1B68684A23F475
S3150800251080331360664B1B68654A23F48023136077
S315080025207B685B68002B13D0FFF718FC386108E05E
S31508002530FFF714FC02463B69D31A642B01D903231F
S3150800254007E25B4B1B6803F40033002BF0D014E062
S31508002550FFF704FC386108E0FFF700FC02463B6918
S31508002560D31A642B01D90323F3E1514B1B6803F4F7
S315080025700033002BF0D100E000BF7B681B6803F036
S315080025800203002B63D04A4B9B6803F00C03002B15
S315080025900BD0474B9B6803F00C03082B1CD1444B0C
S315080025A05B6803F48003002B16D1414B1B6803F0CC
S315080025B00203002B05D07B68DB68012B01D00123C1
S315080025C0C7E13B4B1B6823F0F8027B681B69DB00FD
S315080025D0374913430B603AE07B68DB68002B20D051
S315080025E0344B01221A60FFF7B9FB386108E0FFF7A0
S315080025F0B5FB02463B69D31A022B01D90323A8E18E
S315080026002B4B1B6803F00203002BF0D0284B1B68EA
S3150800261023F0F8027B681B69DB00254913430B602E
S3150800262015E0244B00221A60FFF798FB386108E092
S31508002630FFF794FB02463B69D31A022B01D9032301
S3150800264087E11B4B1B6803F00203002BF0D17B6864
S315080026501B6803F00803002B36D07B685B69002BE8
S3150800266016D0154B01221A60FFF778FB386108E08F
S31508002670FFF774FB02463B69D31A022B01D90323E1
S3150800268067E10B4B5B6F03F00203002BF0D01BE0F6
S31508002690094B00221A60FFF761FB38610EE0FFF76D
S315080026A05DFB02463B69D31A022B07D9032350E187
S315080026B00038024000004742800E4742884B5B6F55
S315080026C003F00203002BEAD17B681B6803F00403BE
S315080026D0002B00F097800023FB75814B1B6C03F0E1
S315080026E08053002B0FD10023BB607D4B1B6C7C4AAB
S315080026F043F0805313647A4B1B6C03F08053BB6022
S31508002700BB680123FB75774B1B6803F48073002BAA
S3150800271018D1744B1B68734A43F480731360FFF730
S315080027201DFB386108E0FFF719FB02463B69D31A1F
S31508002730022B01D903230CE16A4B1B6803F480734F
S31508002740002BF0D07B689B68012B06D1644B1B6F6E
S31508002750634A43F0010313671CE07B689B68052BFB
S315080027600CD15F4B1B6F5E4A43F0040313675C4B47
S315080027701B6F5B4A43F0010313670BE0584B1B6F53
S31508002780574A23F001031367554B1B6F544A23F02E
S31508002790040313677B689B68002B15D0FFF7DEFAE6
S315080027A038610AE0FFF7DAFA02463B69D31A41F2C2
S315080027B08832934201D90323CBE0494B1B6F03F0C0
S315080027C00203002BEED014E0FFF7C8FA38610AE0DE
S315080027D0FFF7C4FA02463B69D31A41F2883293429C
S315080027E001D90323B5E03E4B1B6F03F00203002B10
S315080027F0EED1FB7D012B05D1394B1B6C384A23F0F2
S31508002800805313647B689B69002B00F0A180344BCE
S315080028109B6803F00C03082B5CD07B689B69022B32
S3150800282041D1314B00221A60FFF798FA386108E067
S31508002830FFF794FA02463B69D31A022B01D9032300
S3150800284087E0274B1B6803F00073002BF0D17B68E9
S31508002850DA697B681B6A1A437B685B6A9B011A43C1
S315080028607B689B6A5B08013B1B041A437B68DB6A2F
S315080028701B061B4913434B601B4B01221A60FFF7CB
S315080028806DFA386108E0FFF769FA02463B69D31A20
S31508002890022B01D903235CE0114B1B6803F000737C
S315080028A0002BF0D054E0104B00221A60FFF756FABE
S315080028B0386108E0FFF752FA02463B69D31A022B41
S315080028C001D9032345E0064B1B6803F00073002B70
S315080028D0F0D13DE07B689B69012B07D1012338E0E5
S315080028E00038024000700040600047421B4B5B689E
S315080028F0FB607B689B69012B28D0FB6803F4800288
S315080029007B68DB699A4221D1FB6803F03F027B684A
S315080029101B6A9A421AD1FA6847F6C07313407A6856
S31508002920526A9201934211D1FB6803F440327B68E4
S315080029309B6A5B08013B1B049A4207D1FB6803F0BC
S3150800294070627B68DB6A1B069A4201D0012300E0AD
S31508002950002318461837BD4680BD00BF0038024020
S3150800296080B584B000AF786039607B68002B01D1F0
S315080029700123CCE0684B1B6803F007033A689A42C8
S315080029800CD9654B3A68D2B21A70634B1B6803F0D0
S3150800299007033A689A4201D00123B8E07B681B68AE
S315080029A003F00203002B20D07B681B6803F00403A6
S315080029B0002B05D0594B9B68584A43F4E053936063
S315080029C07B681B6803F00803002B05D0534B9B68F4
S315080029D0524A43F460439360504B9B6823F0F002DD
S315080029E07B689B684D4913438B607B681B6803F0C3
S315080029F00103002B44D07B685B68012B07D1474B4A
S31508002A001B6803F40033002B19D101237FE07B6890
S31508002A105B68022B03D07B685B68032B07D13F4BAF
S31508002A201B6803F00073002B09D101236FE03B4BB1
S31508002A301B6803F00203002B01D1012367E0374B23
S31508002A409B6823F003027B685B68344913438B60F9
S31508002A50FFF784F9F8600AE0FFF780F90246FB6899
S31508002A60D31A41F28832934201D903234FE02B4B04
S31508002A709B6803F00C027B685B689B009A42EBD16B
S31508002A80254B1B6803F007033A689A420CD2224B7F
S31508002A903A68D2B21A70204B1B6803F007033A68EB
S31508002AA09A4201D0012332E07B681B6803F00403D5
S31508002AB0002B08D0194B9B6823F4E0527B68DB682F
S31508002AC0164913438B607B681B6803F00803002BC9
S31508002AD009D0124B9B6823F460427B681B69DB00B4
S31508002AE00E4913438B6000F021F802460B4B9B6896
S31508002AF01B0903F00F030A49CB5C22FA03F3094AC0
S31508002B001360094B1B681846FFF7E4F800231846BC
S31508002B101037BD4680BD00BF003C02400038024069
S31508002B203CE6000800000020040000202DE9B04F14
S31508002B3090B000AF00237B630023FB6300233B6355
S31508002B400023BB63594B9B6803F00C03082B0DD07D
S31508002B50082B00F2A180002B02D0042B03D09BE0A7
S31508002B60534BBB639BE0534BBB6398E04F4B5B688F
S31508002B7003F03F037B634D4B5B6803F48003002B34
S31508002B8028D04A4B5B689B0900223B627A623B6A03
S31508002B90C3F308000021474B03FB01F2002300FBA7
S31508002BA003F31344434AA0FB0212FA620A46BA62C6
S31508002BB0FA6A1344FB627B6B0022BB61FA61D7E9B0
S31508002BC00623D7E90A01FEF75FF802460B461346C5
S31508002BD0FB6353E0354B5B689B0900223B617A61D6
S31508002BE03B69C3F3080A4FF0000B52465B464FF0A9
S31508002BF000004FF00001590141EAD2615001024636
S31508002C000B46B2EB0A0863EB0B094FF000024FF0D4
S31508002C1000034FEA891343EA98634FEA8812B2EB36
S31508002C20080463EB09054FF000024FF00003EB00C0
S31508002C3043EA5473E20014461D4614EB0A033B604C
S31508002C4045EB0B037B604FF000024FF00003D7E91A
S31508002C50004529468B02214643EA915321468A02BA
S31508002C60104619467B6B0022BB60FA60D7E902233F
S31508002C70FEF70AF802460B461346FB630B4B5B68E6
S31508002C801B0C03F0030301335B003B63FA6B3B6BDE
S31508002C90B2FBF3F3BB6302E0054BBB6300BFBB6B40
S31508002CA018464037BD46BDE8B08F00BF0038024021
S31508002CB00024F40040787D0180B400AF034B1B6804
S31508002CC01846BD465DF8047B704700BF000000202B
S31508002CD080B500AFFFF7F0FF0246054B9B689B0ADD
S31508002CE003F007030349CB5C22FA03F3184680BDB9
S31508002CF0003802404CE6000880B500AFFFF7DCFF5D
S31508002D000246054B9B685B0B03F007030349CB5C44
S31508002D1022FA03F3184680BD003802404CE6000844
S31508002D2080B582B000AF78607B68002B01D10123A3
S31508002D3022E07B6893F83430DBB2002B05D17B6840
S31508002D4000221A777868FEF773FD7B68032283F8FA
S31508002D503420786800F014F80346002B01D00123CC
S31508002D600AE07B6800229A637B6800221A637B6804
S31508002D70012283F83420002318460837BD4680BD53
S31508002D80B0B58EB004AF78600023FB6000233B61CA
S31508002D9000237B610023BB610023FB6176233B6232
S31508002DA07B681D686C4607F1180393E8070084E8FA
S31508002DB0070007F10C030ECB284602F017F92A4B39
S31508002DC000221A607B681B68184602F058F9264BE1
S31508002DD001221A600220FEF7CDFF786801F078F824
S31508002DE078627B6A002B0BD07B68012283F834203B
S31508002DF07B689A6B7B6A1A437B689A6301232EE089
S31508002E00786800F097FF78627B6A002B0BD07B68A6
S31508002E10012283F834207B689A6B7B6A1A437B68A5
S31508002E209A6301231BE07B681B684FF40071184600
S31508002E3002F0B7F978627B6A002B0FD07B681B68B3
S31508002E400A4A9A637B689A6B7B6A1A437B689A6319
S31508002E507B68012283F83420012300E0002318460A
S31508002E602837BD46B0BD00BFA0802542FF054000FB
S31508002E7080B592B000AFF860B9607A603B60FEF743
S31508002E806DFF38637B68BB63BB687B63BB68002BDD
S31508002E9007D1FB689B6B43F00062FB689A630123CA
S31508002EA0C5E1FB6893F83430DBB2012B40F0B881FA
S31508002EB0FB6800229A63BA6B3B681A44FB68DB6DB1
S31508002EC09A4207D9FB689B6B43F00072FB689A63CA
S31508002ED00123ACE1FB68032283F83420FB681B68F6
S31508002EE00022DA62FB685B6C012B02D0BB6B5B02CB
S31508002EF0BB634FF0FF337B613B685B02BB6190238A
S31508002F00FB6102233B6200237B620123BB62FB68F1
S31508002F101B6807F114021146184602F016F93B68B9
S31508002F20012B0AD9FB6802221A63FB681B68B96B76
S31508002F30184602F07AF9786409E0FB6801221A63F8
S31508002F40FB681B68B96B184602F04DF978647B6C10
S31508002F50002B12D0FB681B687E4A9A63FB689A6B43
S31508002F607B6C1A43FB689A63FB68012283F834205A
S31508002F70FB6800221A63012359E1BB69FB6361E020
S31508002F80FB681B685B6B03F40043002B3CD0FB6BB0
S31508002F90002B39D000233B6433E0FB681B681846D6
S31508002FA002F04FF8F862FB6ADAB27B6B1A707B6B39
S31508002FB001337B63FB6B013BFB63FB6A1B0ADAB2DB
S31508002FC07B6B1A707B6B01337B63FB6B013BFB638B
S31508002FD0FB6A1B0CDAB27B6B1A707B6B01337B6363
S31508002FE0FB6B013BFB63FB6A1B0EDAB27B6B1A7049
S31508002FF07B6B01337B63FB6B013BFB633B6C0133F0
S315080030003B643B6C072BC8D9FEF7A8FE02463B6B10
S31508003010D31A3A6D9A4202D93B6D002B12D1FB683E
S315080030201B684C4A9A63FB689B6B43F00042FB683B
S315080030309A63FB68012283F83420FB6800221A632E
S315080030400323F4E0FB681B685A6B40F22A331340EB
S31508003050002B95D0FB681B685B6B03F48073002B11
S3150800306022D03B68012B1FD9FB685B6C032B1BD056
S31508003070FB681B68184602F03FF978647B6C002BE6
S3150800308012D0FB681B68334A9A63FB689A6B7B6CA1
S315080030901A43FB689A63FB68012283F83420FB68AD
S315080030A000221A630123C2E0FB681B685B6B03F00E
S315080030B00803002B06D1FB681B685B6B03F40073DF
S315080030C0002B12D0FB681B68224A9A63FB689B6B2D
S315080030D043F00802FB689A63FB68012283F83420F0
S315080030E0FB6800221A630123A1E0FB681B685B6B7F
S315080030F003F00203002B12D0FB681B68154A9A637B
S31508003100FB689B6B43F00202FB689A63FB6801222B
S3150800311083F83420FB6800221A63012387E0FB68E2
S315080031201B685B6B03F02003002B64D0FB681B68ED
S31508003130084A9A63FB689B6B43F02002FB689A6314
S31508003140FB68012283F83420FB6800221A630123F6
S315080031506DE000BFFF054000FB681B68184601F0DC
S3150800316070FFF862FB6ADAB27B6B1A707B6B01330D
S315080031707B63FB6B013BFB63FB6A1B0ADAB27B6B67
S315080031801A707B6B01337B63FB6B013BFB63FB6A4A
S315080031901B0CDAB27B6B1A707B6B01337B63FB6BA0
S315080031A0013BFB63FB6A1B0EDAB27B6B1A707B6B07
S315080031B001337B63FB6B013BFB63FEF7CFFD0246E6
S315080031C03B6BD31A3A6D9A4202D93B6D002B12D14A
S315080031D0FB681B68184A9A63FB689B6B43F00042BE
S315080031E0FB689A63FB68012283F83420FB68002297
S315080031F01A6301231BE0FB681B685B6B03F400136F
S31508003200002B02D0FB6B002BA6D1FB681B6840F293
S315080032103A529A63FB68012283F83420002306E0B9
S31508003220FB689B6B43F00052FB689A6301231846C0
S315080032304837BD4680BD00BFFF05400080B592B047
S3150800324000AFF860B9607A603B60FEF787FD3863C7
S315080032507B68BB63BB687B63BB68002B07D1FB68D5
S315080032609B6B43F00062FB689A6301236DE1FB6880
S3150800327093F83430DBB2012B40F06081FB68002202
S315080032809A63BA6B3B681A44FB68DB6D9A4207D9A6
S31508003290FB689B6B43F00072FB689A63012354E159
S315080032A0FB68032283F83420FB681B680022DA6275
S315080032B0FB685B6C012B02D0BB6B5B02BB634FF0F8
S315080032C0FF33BB613B685B02FB6190233B620023D3
S315080032D07B620023BB620123FB62FB681B6807F164
S315080032E018021146184601F030FF3B68012B0AD92F
S315080032F0FB6820221A63FB681B68B96B184601F045
S31508003300D8FF786409E0FB6810221A63FB681B681B
S31508003310B96B184601F0ABFF78647B6C002B12D0B2
S31508003320FB681B688B4A9A63FB689A6B7B6C1A432B
S31508003330FB689A63FB68012283F83420FB68002245
S315080033401A63012301E1FB69FB6365E0FB681B68FF
S315080033505B6B03F48043002B40D0FB6B002B3DD006
S3150800336000233B6437E07B6B1B787B617B6B013307
S315080033707B63FB6B013BFB637B6B1B781A027B69E8
S3150800338013437B617B6B01337B63FB6B013BFB6305
S315080033907B6B1B781A047B6913437B617B6B013358
S315080033A07B63FB6B013BFB637B6B1B781A067B69B4
S315080033B013437B617B6B01337B63FB6B013BFB63D5
S315080033C0FB681B6807F114021146184601F046FE11
S315080033D03B6C01333B643B6C072BC4D9FEF7BEFC40
S315080033E002463B6BD31A3A6D9A4202D93B6D002BC3
S315080033F012D1FB681B68574A9A63FB689A6B7B6C09
S315080034001A43FB689A63FB68012283F83420FB6839
S3150800341000221A63032398E0FB681B685A6B40F284
S315080034201A331340002B91D0FB681B685B6B03F4BF
S315080034308073002B22D03B68012B1FD9FB685B6C7D
S31508003440032B1BD0FB681B68184601F055FF7864F0
S315080034507B6C002B12D0FB681B683E4A9A63FB689C
S315080034609A6B7B6C1A43FB689A63FB68012283F8A4
S315080034703420FB6800221A63012366E0FB681B6898
S315080034805B6B03F00803002B06D1FB681B685B6BBC
S3150800349003F40073002B12D0FB681B682D4A9A634D
S315080034A0FB689B6B43F00802FB689A63FB68012282
S315080034B083F83420FB6800221A63012345E0FB6881
S315080034C01B685B6B03F00203002B12D0FB681B68BA
S315080034D0204A9A63FB689B6B43F00202FB689A6377
S315080034E0FB68012283F83420FB6800221A63012353
S315080034F02BE0FB681B685B6B03F01003002B12D0F4
S31508003500FB681B68134A9A63FB689B6B43F01002BF
S31508003510FB689A63FB68012283F83420FB68002263
S315080035201A63012311E0FB681B6840F23A529A635A
S31508003530FB68012283F83420002306E0FB689B6BB6
S3150800354043F00052FB689A63012318464837BD4684
S3150800355080BD00BFFF05400080B584B000AF78602D
S315080035607B681B6BFB607B681B685B6B03F4004323
S31508003570002B08D0FB6803F00803002B03D07868FB
S3150800358000F05CFD65E17B681B685B6B03F4807388
S31508003590002B00F08F807B681B684FF480729A635B
S315080035A07B681B68DB6B7A68126823F4434323F055
S315080035B03A03D3637B681B68DA6A7B681B6822F068
S315080035C00102DA62FB6803F00803002B39D0FB68B6
S315080035D003F00203002B04D1FB6803F02003002B41
S315080035E011D07B681B68184601F086FEB860BB6878
S315080035F0002B08D07B689A6BBB681A437B689A6372
S31508003600786800F02FF97B681B6840F23A529A6393
S315080036107B68012283F834207B6800221A63FB68E2
S3150800362003F00103002B04D1FB6803F00203002B0F
S3150800363003D0786802F0ACFA0BE1786802F09EFADB
S3150800364007E1FB6803F08003002B00F00281FB68AA
S3150800365003F02003002B11D07B681B68184601F085
S315080036604BFEB860BB68002B08D07B689A6BBB68BA
S315080036701A437B689A63786800F0F4F8FB6803F0ED
S315080036800103002B40F0E580FB6803F00203002BE2
S3150800369040F0DF807B681B68DA6A7B681B6822F06B
S315080036A00802DA627B68012283F83420786802F01F
S315080036B065FACEE07B681B685B6B03F48043002BDE
S315080036C008D0FB6803F00803002B03D0786800F0E5
S315080036D006FDBEE07B681B685A6B40F23A2313402E
S315080036E0002B00F0B6807B681B685B6B03F0020357
S315080036F0002B05D07B689B6B43F002027B689A63BC
S315080037007B681B685B6B03F00803002B05D07B689E
S315080037109B6B43F008027B689A637B681B685B6B4C
S3150800372003F02003002B05D07B689B6B43F0200237
S315080037307B689A637B681B685B6B03F01003002B3E
S3150800374005D07B689B6B43F010027B689A637B68A5
S315080037501B685B6B03F40073002B05D07B689B6BBF
S3150800376043F008027B689A637B681B6840F23A72EA
S315080037709A637B681B68DB6B7A68126823F44E735E
S3150800378023F00203D3637B681B68184601F0B4FD77
S3150800379002467B689B6B1A437B689A63FB6803F057
S315080037A00803002B0AD07B68012283F834207B6843
S315080037B000221A63786800F055F84AE0FB6803F0BF
S315080037C08003002B45D0FB6803F01003002B04D1BF
S315080037D0FB6803F02003002B11D07B68DB6B1F4AC4
S315080037E01A657B68DB6B1846FEF769FC0346002BF7
S315080037F02FD07B68DB6B184600F02EFA29E0FB68B1
S3150800380003F00103002B04D1FB6803F00203002B2D
S3150800381011D07B681B6C124A1A657B681B6C1846AC
S31508003820FEF74DFC0346002B13D07B681B6C18462D
S3150800383000F049FA0DE07B6800229A637B68012252
S3150800384083F834207B6800221A63786802F08CF9C2
S31508003850FFE700BF1037BD4680BD00BF593C0008D2
S31508003860C73C000880B483B000AF786000BF0C374F
S31508003870BD465DF8047B704780B483B000AF7860BE
S3150800388039607B685B6E9B0FDAB23B681A707B689F
S315080038905B6E9B0EDBB203F00F03DAB23B685A701D
S315080038A07B685B6E1B0EDBB203F00303DAB23B6880
S315080038B09A707B685B6E1B0CDAB23B68DA707B68C1
S315080038C05B6E1B0ADAB23B681A717B685B6EDAB20A
S315080038D03B685A717B689B6E1B0D9AB23B68DA800F
S315080038E07B689B6E1B0CDBB203F00F03DAB23B68F6
S315080038F01A727B689B6EDB0BDBB203F00103DAB24C
S315080039003B685A727B689B6E9B0BDBB203F0010324
S31508003910DAB23B689A727B689B6E5B0BDBB203F08C
S315080039200103DAB23B68DA727B689B6E1B0BDBB26B
S3150800393003F00103DAB23B681A733B6800225A7334
S315080039407B685B6C002B63D17B689B6E9A0040F6A4
S31508003950FC7313407A68D26E920F1A433B681A6159
S315080039607B68DB6EDB0EDBB203F00703DAB23B687B
S315080039701A757B68DB6E1B0EDBB203F00703DAB23F
S315080039803B685A757B68DB6E5B0DDBB203F0070399
S31508003990DAB23B689A757B68DB6E9B0CDBB203F088
S315080039A00703DAB23B68DA757B68DB6EDB0BDBB2E2
S315080039B003F00703DAB23B681A763B681B695A1CA0
S315080039C07B685A653B681B7EDBB203F0070302334C
S315080039D0012202FA03F37A68526D03FB02F27B684E
S315080039E05A653B681B7ADBB203F00F0301229A4043
S315080039F07B689A657B685B6D7A68926D520A03FBF1
S31508003A0002F27B68DA657B684FF400721A6631E069
S31508003A107B685B6C012B1DD17B689B6E1B0403F4D2
S31508003A207C127B68DB6E1B0C1A433B681A613B6889
S31508003A301B6901339A027B685A657B685A6D7B68F5
S31508003A40DA657B684FF400729A657B689A6D7B68C5
S31508003A501A660FE07B681B68584A9A637B689B6BFB
S31508003A6043F080527B689A637B68012283F834208E
S31508003A7001239DE07B68DB6E9B0BDBB203F0010341
S31508003A80DAB23B685A767B68DB6EDB09DBB203F099
S31508003A907F03DAB23B689A767B68DB6EDBB203F0AB
S31508003AA07F03DAB23B68DA767B681B6FDB0FDAB224
S31508003AB03B681A777B681B6F5B0FDBB203F0030367
S31508003AC0DAB23B685A777B681B6F9B0EDBB203F052
S31508003AD00703DAB23B689A777B681B6F9B0DDBB2EC
S31508003AE003F00F03DAB23B68DA777B681B6F5B0D6E
S31508003AF0DBB203F00103DAB23B6883F820203B68A7
S31508003B00002283F821207B681B6F1B0CDBB203F0B5
S31508003B100103DAB23B6883F822207B681B6FDB0B54
S31508003B20DBB203F00103DAB23B6883F823207B6833
S31508003B301B6F9B0BDBB203F00103DAB23B6883F819
S31508003B4024207B681B6F5B0BDBB203F00103DAB240
S31508003B503B6883F825207B681B6F1B0BDBB203F0E1
S31508003B600103DAB23B6883F826207B681B6F9B0A41
S31508003B70DBB203F00303DAB23B6883F827207B68DD
S31508003B801B6F1B0ADBB203F00303DAB23B6883F848
S31508003B9028207B681B6F5B08DBB203F07F03DAB271
S31508003BA03B6883F829203B68012283F82A200023F2
S31508003BB018460C37BD465DF8047B7047FF05400084
S31508003BC080B483B000AF786039607B685A6C3B6814
S31508003BD01A607B689A6C3B685A607B68DA6C3B684B
S31508003BE09A607B681A6D3B68DA607B685A6D3B6839
S31508003BF01A617B689A6D3B685A617B68DA6D3B6827
S31508003C009A617B681A6E3B68DA61002318460C379E
S31508003C10BD465DF8047B704780B586B000AF786016
S31508003C200023FB6007F10C031946786800F0DEF9FB
S31508003C3078617B69002B05D07B689A6B7B691A4390
S31508003C407B689A63FB685B0A03F00F033B613B6979
S31508003C5018461837BD4680BD80B584B000AF786079
S31508003C607B689B6BFB60FB681B6840F23A529A6361
S31508003C70F868FFF7D1FFB860FB68012283F83420A3
S31508003C80FB6800221A63BB68062B02D0BB68052BAB
S31508003C900AD1FB681B68184601F02EFB0246FB6832
S31508003CA09B6B1A43FB689A63FB689B6B002B03D1DB
S31508003CB0F86801F059FF02E0F868FFF7D3FD00BF86
S31508003CC01037BD4680BD80B584B000AF78607B688C
S31508003CD09B6BFB60FB681B6840F23A529A63F86874
S31508003CE0FFF79AFFB860FB68012283F83420FB6867
S31508003CF000221A63BB68062B02D0BB68052B0AD1C3
S31508003D00FB681B68184601F0F7FA0246FB689B6BCE
S31508003D101A43FB689A63FB689B6B002B03D1F86810
S31508003D2001F022FF02E0F868FFF79CFD00BF10379C
S31508003D30BD4680BDB0B594B004AF78600123FB8161
S31508003D407B681B68184601F0A8F90346002B02D1C8
S31508003D504FF08063B8E07B685B6C032B2FD07B68E1
S31508003D601B68184601F08FFBF863FB6B002B01D02C
S31508003D70FB6BA9E07B681B680021184601F0D2F9A5
S31508003D8002467B685A677B681B680421184601F05F
S31508003D90C9F902467B689A677B681B68082118463A
S31508003DA001F0C0F902467B68DA677B681B680C215C
S31508003DB0184601F0B7F902467B68C3F880207B688D
S31508003DC05B6C032B0DD07B681B6807F10E0211464E
S31508003DD0184601F095FBF863FB6B002B01D0FB6BD3
S31508003DE072E07B685B6C032B36D0FB891A467B68CE
S31508003DF01A657B681A687B681B6D1B041946104692
S31508003E0001F05FFBF863FB6B002B01D0FB6B5BE0FB
S31508003E107B681B680021184601F084F902467B6816
S31508003E205A667B681B680421184601F07BF902462E
S31508003E307B689A667B681B680821184601F072F948
S31508003E4002467B68DA667B681B680C21184601F017
S31508003E5069F902467B681A677B681B68042118465D
S31508003E6001F060F903461A0D7B68DA6407F110035E
S31508003E7019467868FFF700FD0346002B02D04FF07D
S31508003E80805321E07B6819687B681B6D1B04002240
S31508003E901C46154622462B46084601F04FFAF8639B
S31508003EA0FB6B002B01D0FB6B0EE07B681D687B6803
S31508003EB06C4603F1100207CA84E8070004330ECBE8
S31508003EC0284601F093F8002318464037BD46B0BD92
S31508003ED080B586B000AF78600023BB6000237B61A5
S31508003EE000233B617B681B68184601F04AFAF860B4
S31508003EF0FB68002B01D0FB6872E07B681B681846DC
S31508003F0001F05DFAF860FB68002B0DD07B68002293
S31508003F109A647B681B68184601F033FAF860FB68F8
S31508003F20002B04D0FB685BE07B6801229A647B68FF
S31508003F309B6C012B37D17B681B680021184601F062
S31508003F405DFAF860FB68002B2DD04FF0805347E0F0
S31508003F507B681B680021184601F050FAF860FB6878
S31508003F60002B01D0FB683BE07B681B681E4918469E
S31508003F7001F066FAF860FB68002B02D04FF0805318
S31508003F802EE07B681B680021184601F0CBF87861A3
S31508003F907B69DB0F012B01D1012300E000233B6184
S31508003FA0BB680133BB60BB684FF6FE72934202D80A
S31508003FB03B69002BCCD0BB684FF6FE72934202D900
S31508003FC04FF080730CE07B6903F08043002B03D02D
S31508003FD07B6801225A6402E07B6800225A64002347
S31508003FE018461837BD4680BD000010C180B584B09C
S31508003FF000AF786039603B68002B02D14FF0006350
S3150800400018E07B681A687B681B6D1B041946104606
S3150800401001F097FAF860FB68002B01D0FB6809E00D
S315080040207B681B680021184601F07CF802463B684D
S315080040301A60002318461037BD4680BD80B586B085
S3150800404000AF78607B689B6AFB607B68DB6A3B61D4
S315080040503B69002B3FD000237B6133E07B681B68FC
S31508004060184600F0EEFFB860BB68DAB2FB681A7053
S31508004070FB680133FB603B69013B3B61BB681B0A7C
S31508004080DAB2FB681A70FB680133FB603B69013BD7
S315080040903B61BB681B0CDAB2FB681A70FB6801331C
S315080040A0FB603B69013B3B61BB681B0EDAB2FB68F0
S315080040B01A70FB680133FB603B69013B3B617B6916
S315080040C001337B617B69072BC8D97B68FA689A62DA
S315080040D07B683A69DA6200BF1837BD4680BD80B58D
S315080040E086B000AF78607B681B6AFB607B685B6A9A
S315080040F03B613B69002B43D000237B6137E0FB68BB
S315080041001B78BB60FB680133FB603B69013B3B6185
S31508004110FB681B781A02BB681343BB60FB68013354
S31508004120FB603B69013B3B61FB681B781A04BB6873
S315080041301343BB60FB680133FB603B69013B3B6192
S31508004140FB681B781A06BB681343BB60FB68013320
S31508004150FB603B69013B3B617B681B6807F1080212
S315080041601146184600F07AFF7B6901337B617B694B
S31508004170072BC4D97B68FA681A627B683A695A625F
S3150800418000BF1837BD4680BD80B582B000AF7860E5
S315080041907B68002B01D1012342E07B6893F841300C
S315080041A0DBB2002B06D17B68002283F840207868B2
S315080041B0FDF7C0FB7B68242283F841207B681B68D7
S315080041C0DA687B681B6822F40052DA60786800F0C7
S315080041D099FC7B681B681A697B681B6822F4904205
S315080041E01A617B681B685A697B681B6822F02A0279
S315080041F05A617B681B68DA687B681B6842F4005260
S31508004200DA607B6800225A647B68202283F84120A2
S315080042107B68202283F842207B6800225A630023A9
S3150800422018460837BD4680BD80B5BAB000AF78607D
S315080042307B681B681B68C7F8E4307B681B68DB680B
S31508004240C7F8E0307B681B685B69C7F8DC30002379
S31508004250C7F8D8300023C7F8D430D7F8E43003F0CD
S315080042600F03C7F8D830D7F8D830002B0FD1D7F8B6
S31508004270E43003F02003002B09D0D7F8E03003F030
S315080042802003002B03D0786800F07EFB73E2D7F892
S31508004290D830002B00F0DE80D7F8DC3003F00103BD
S315080042A0002B06D1D7F8E03003F49073002B00F00A
S315080042B0D180D7F8E43003F00103002B0BD0D7F8F0
S315080042C0E03003F48073002B05D07B685B6C43F009
S315080042D001027B685A64D7F8E43003F00403002B24
S315080042E00BD0D7F8DC3003F00103002B05D07B6830
S315080042F05B6C43F002027B685A64D7F8E43003F03B
S315080043000203002B0BD0D7F8DC3003F00103002B97
S3150800431005D07B685B6C43F004027B685A64D7F867
S31508004320E43003F00803002B11D0D7F8E03003F08F
S315080043302003002B05D1D7F8DC3003F00103002B4E
S3150800434005D07B685B6C43F008027B685A647B681F
S315080043505B6C002B00F00A82D7F8E43003F02003E8
S31508004360002B08D0D7F8E03003F02003002B02D04A
S31508004370786800F009FB7B681B685B6903F04003FB
S31508004380402B0CBF01230023DBB2C7F8D4307B686F
S315080043905B6C03F00803002B03D1D7F8D430002B4D
S315080043A04FD0786800F014FA7B681B685B6903F0E5
S315080043B04003402B41D17B681B681433C7F89C30F7
S315080043C0D7F89C3053E8003FC7F89830D7F89830AC
S315080043D023F04003C7F8D0307B681B681433D7F83E
S315080043E0D020C7F8A820C7F8A430D7F8A410D7F863
S315080043F0A82041E80023C7F8A030D7F8A030002B42
S31508004400D9D17B68DB6B002B13D07B68DB6B8A4AC0
S315080044101A657B68DB6B1846FDF751FE0346002BD1
S3150800442016D07B68DB6B1B6D7A68D26B1046984793
S315080044300EE0786800F0B6F90AE0786800F0B2F99C
S3150800444006E0786800F0AEF97B6800225A648DE1D0
S3150800445000BF8BE17B681B6B012B40F06781D7F8A7
S31508004460E43003F01003002B00F06081D7F8E03049
S3150800447003F01003002B00F059810023BB607B6812
S315080044801B681B68BB607B681B685B68BB60BB6896
S315080044907B681B685B6903F04003402B40F0CE80C5
S315080044A07B68DB6B1B685B68A7F8BE30B7F8BE3065
S315080044B0002B00F0A9807B689B8DB7F8BE209A4236
S315080044C080F0A2807B68B7F8BE20DA857B68DB6B54
S315080044D0DB69B3F5807F00F088807B681B680C3346
S315080044E0C7F88830D7F8883053E8003FC7F88430D3
S315080044F0D7F8843023F48073C7F8B8307B681B6814
S315080045000C33D7F8B820C7F89420C7F89030D7F8F6
S315080045109010D7F8942041E80023C7F88C30D7F8D4
S315080045208C30002BD9D17B681B6814337B677B6F73
S3150800453053E8003F3B673B6F23F00103C7F8B430ED
S315080045407B681B681433D7F8B420C7F88020FB674C
S31508004550F96FD7F8802041E80023BB67BB6F002BB3
S31508004560E1D17B681B6814333B663B6E53E8003F1A
S31508004570FB65FB6D23F04003C7F8B0307B681B680A
S315080045801433D7F8B020FA66BB66B96EFA6E41E8FE
S3150800459000237B667B6E002BE3D17B68202283F8A1
S315080045A042207B6800221A637B681B680C33FB6415
S315080045B0FB6C53E8003FBB64BB6C23F01003C7F8E1
S315080045C0AC307B681B680C33D7F8AC20BA657B65C2
S315080045D0796DBA6D41E800233B653B6D002BE3D14D
S315080045E07B68DB6B1846FDF7FAFC7B6802225A6388
S315080045F07B689A8D7B68DB8D9BB2D31A9BB2194672
S31508004600786800F0D9F8B3E07B689B8DB7F8BE20D0
S315080046109A4240F0AD807B68DB6BDB69B3F5807F3F
S3150800462040F0A6807B6802225A637B689B8D1946F8
S31508004630786800F0C1F89BE0974800087B689A8D77
S315080046407B68DB8D9BB2D31AA7F8CE307B68DB8DEF
S315080046509BB2002B00F08E80B7F8CE30002B00F00E
S3150800466089807B681B680C33BB63BB6B53E8003FD0
S315080046707B637B6B23F49073C7F8C8307B681B6831
S315080046800C33D7F8C8207A643B64396C7A6C41E8F5
S315080046900023FB63FB6B002BE3D17B681B68143399
S315080046A07B627B6A53E8003F3B623B6A23F0010367
S315080046B0C7F8C4307B681B681433D7F8C4203A633C
S315080046C0FB62F96A3A6B41E80023BB62BB6A002BBE
S315080046D0E3D17B68202283F842207B6800221A6394
S315080046E07B681B680C333B613B6953E8003FFB6002
S315080046F0FB6823F01003C7F8C0307B681B680C33CF
S31508004700D7F8C020FA61BB61B969FA6941E80023A4
S315080047107B617B69002BE3D17B6802225A63B7F879
S31508004720CE301946786800F047F823E0D7F8E43029
S3150800473003F08003002B09D0D7F8E03003F080039C
S31508004740002B03D0786800F0B7F814E0D7F8E43007
S3150800475003F04003002B0ED0D7F8E03003F04003F7
S31508004760002B08D0786800F0F7F804E000BF02E0F4
S3150800477000BF00E000BFE837BD4680BD80B483B007
S3150800478000AF786000BF0C37BD465DF8047B704704
S3150800479080B483B000AF786000BF0C37BD465DF8C3
S315080047A0047B704780B483B000AF786000BF0C37D5
S315080047B0BD465DF8047B704780B483B000AF78606F
S315080047C00B467B8000BF0C37BD465DF8047B7047FF
S315080047D080B495B000AF78607B681B680C337B6348
S315080047E07B6B53E8003F3B633B6B23F49073FB649E
S315080047F07B681B680C33FA6C3A64FB63F96B3A6C9A
S3150800480041E80023BB63BB6B002BE5D17B681B68C3
S3150800481014333B623B6A53E8003FFB61FB6923F0B4
S315080048200103BB647B681B681433BA6CFA62BB620B
S31508004830B96AFA6A41E800237B627B6A002BE5D1F4
S315080048407B681B6B012B19D17B681B680C33FB60DB
S31508004850FB6853E8003FBB60BB6823F010037B642A
S315080048607B681B680C337A6CBA617B617969BA69B3
S3150800487041E800233B613B69002BE5D17B68202298
S3150800488083F842207B6800221A6300BF5437BD466E
S315080048905DF8047B704780B584B000AF78607B68AC
S315080048A09B6BFB60FB680022DA85F868FFF77AFFE6
S315080048B000BF1037BD4680BD80B485B000AF7860B4
S315080048C07B6893F84130DBB2212B3ED17B689B682D
S315080048D0B3F5805F14D17B681B69002B10D17B6808
S315080048E01B6AFB60FB681B881A467B681B68C2F359
S315080048F008025A607B681B6A9A1C7B681A6208E081
S315080049007B681B6A591C7A6811621A787B681B686F
S315080049105A607B68DB8C9BB2013B9BB27A6819466E
S31508004920D184002B0FD17B681B68DA687B681B680B
S3150800493022F08002DA607B681B68DA687B681B688D
S3150800494042F04002DA60002300E0022318461437DA
S31508004950BD465DF8047B704780B582B000AF7860CD
S315080049607B681B68DA687B681B6822F04002DA609D
S315080049707B68202283F841207868FFF7FFFE002332
S3150800498018460837BD4680BD80B58CB000AF786044
S315080049900023FB620023BB627B6893F84230DBB2DC
S315080049A0222B40F0AA807B689B68B3F5805F15D1FF
S315080049B07B681B69002B11D17B689B6ABB627B688D
S315080049C01B685B689BB2C3F308039AB2BB6A1A807A
S315080049D07B689B6A9A1C7B689A6224E07B689B6A60
S315080049E0FB627B689B68B3F5805F07D07B689B6832
S315080049F0002B0AD17B681B69002B06D17B681B68D4
S31508004A005B68DAB2FB6A1A7008E07B681B685B6849
S31508004A10DBB203F07F03DAB2FB6A1A707B689B6A23
S31508004A205A1C7B689A627B68DB8D9BB2013B9BB202
S31508004A307A681946D185002B5DD17B681B68DA68D0
S31508004A407B681B6822F02002DA607B681B68DA68DC
S31508004A507B681B6822F48072DA607B681B685A6977
S31508004A607B681B6822F001025A617B68202283F862
S31508004A7042207B6800225A637B681B6B012B35D169
S31508004A807B6800221A637B681B680C337B617B6931
S31508004A9053E8003F3B613B6923F010037B627B6868
S31508004AA01B680C337A6A3A62FB61F9693A6A41E82B
S31508004AB00023BB61BB69002BE5D17B681B681B68BB
S31508004AC003F01003102B0AD10023FB607B681B68D8
S31508004AD01B68FB607B681B685B68FB60FB687B6820
S31508004AE09B8D19467868FFF767FE02E07868FFF73E
S31508004AF04FFE002302E0002300E002231846303769
S31508004B00BD4680BD2DE9B04FC0B000AFC7F8F40070
S31508004B10D7F8F4301B681B6923F44050D7F8F430F3
S31508004B20D968D7F8F4301A6840EA01031361D7F850
S31508004B30F4309A68D7F8F4301B691A43D7F8F4307A
S31508004B405B691A43D7F8F430DB691343C7F8F830C2
S31508004B50D7F8F4301B68DB6823F4164121F00C0102
S31508004B60D7F8F4301A68D7F8F8300B43D360D7F87B
S31508004B70F4301B685B6923F44070D7F8F430996900
S31508004B80D7F8F4301A6840EA01035361D7F8F430CD
S31508004B901A688F4B9A4205D0D7F8F4301A688D4BAD
S31508004BA09A4204D1FEF7A8F8C7F8FC0003E0FEF71E
S31508004BB08FF8C7F8FC00D7F8F430DB69B3F5004F77
S31508004BC040F00C81D7F8FC300022C7F8E830C7F867
S31508004BD0EC20D7E93A4522462B469118B9655B4140
S31508004BE0FB65D7E91623214612EB0108294643EB54
S31508004BF001094FF000024FF000034FEAC90343EAE8
S31508004C0058734FEAC80290469946234618EB0303A1
S31508004C10C7F8E0302B4649EB0303C7F8E430D7F86A
S31508004C20F4305B680022C7F8D830C7F8DC20D7E92B
S31508004C3036120B46DB183B65134642EB03037B65CE
S31508004C40D7E91423D7E93801FCF71EF802460B46C4
S31508004C50614BA3FB02235B091C01D7F8FC30002239
S31508004C60C7F8D030C7F8D420D7E9348942464B462E
S31508004C709118B9645B41FB64D7E91223414612EBEC
S31508004C80010A494643EB010B4FF000024FF00003BF
S31508004C904FEACB0343EA5A734FEACA0292469B4647
S31508004CA043461AEB0303C7F8C8304B464BEB0303DE
S31508004CB0C7F8CC30D7F8F4305B680022C7F8C030A4
S31508004CC0C7F8C420D7E930120B46DB183B641346F5
S31508004CD042EB03037B64D7E91023D7E93201FBF7DC
S31508004CE0D3FF02460B4611463B4BA3FB01235B0948
S31508004CF0642202FB03F3CB1ADB0003F13202364BC4
S31508004D00A3FB02235B095B0003F4F8731C44D7F882
S31508004D10FC300022C7F8B830C7F8BC20D7E92E897E
S31508004D2042464B469118B9635B41FB63D7E90E23AC
S31508004D3041465118396349464B417B634FF000029F
S31508004D404FF00003D7E90CAB5946CB00514643EA6E
S31508004D5051735146CA0010461946034642469B18E7
S31508004D60C7F8B0304B460A4642EB0303C7F8B430DF
S31508004D70D7F8F4305B680022C7F8A830C7F8AC202B
S31508004D80D7E92A120B46DB18BB62134642EB03032C
S31508004D90FB62D7E90A23D7E92C01FBF775FF024620
S31508004DA00B460D4BA3FB02135B09642101FB03F3BE
S31508004DB0D31ADB003233084AA2FB03235B0903F04C
S31508004DC00702D7F8F4301B6822449A6006E100BF50
S31508004DD000100140001401401F85EB51D7F8FC3044
S31508004DE00022C7F8A030C7F8A420D7E92889424688
S31508004DF04B46911839625B417B62D7E908234146E5
S31508004E005418494643EB01054FF000024FF00003E2
S31508004E10EB0043EA5473E20014461D464346E31882
S31508004E20C7F898304B4645EB0303C7F89C30D7F8CC
S31508004E30F4305B680022C7F89030C7F894204FF02A
S31508004E4000024FF00003D7E9244529468B00214686
S31508004E5043EA917321468A00D7E92601FBF714FF36
S31508004E6002460B46604BA3FB02235B091C01D7F8DD
S31508004E70FC300022C7F88830C7F88C20D7E9228989
S31508004E8042464B469118B9615B41FB61D7E9062357
S31508004E9041465118396149464B417B614FF0000242
S31508004EA04FF00003D7E904AB5946CB00514643EA15
S31508004EB051735146CA0010461946034642469B1886
S31508004EC0C7F880304B460A4642EB0303C7F88430DE
S31508004ED0D7F8F4305B680022BB67FA674FF0000228
S31508004EE04FF00003D7E91E8949468B00414643EA3D
S31508004EF0917341468A00D7E92001FBF7C5FE0246B1
S31508004F000B461146384BA3FB01235B09642202FBBF
S31508004F1003F3CB1A1B013233334AA2FB03235B0983
S31508004F2003F0F0031C44D7F8FC3000223B677A678D
S31508004F30D7E91C8942464B469118B9605B41FB602C
S31508004F40D7E9022341465118396049464B417B60EF
S31508004F504FF000024FF00003D7E900AB5946CB00EB
S31508004F60514643EA51735146CA001046194603464C
S31508004F7042469B18BB664B460A4642EB0303FB6652
S31508004F80D7F8F4305B6800223B667A664FF0000279
S31508004F904FF00003D7E9188949468B00414643EA92
S31508004FA0917341468A00D7E91A01FBF76DFE02465E
S31508004FB00B460D4BA3FB02135B09642101FB03F3AC
S31508004FC0D31A1B013233084AA2FB03235B0903F0F9
S31508004FD00F02D7F8F4301B6822449A6000BF07F521
S31508004FE08077BD46BDE8B08F1F85EB5184B080B48D
S31508004FF085B000AF786007F11C0080E80E0000233A
S31508005000FB60FA693B6A1A437B6A1A43BB6A1A430E
S31508005010FB6A1A433B6B1343FA681343FB607B68CE
S315080050205B6823F4FD4323F07F03FA681A437B6821
S315080050305A60002318461437BD465DF8047B04B051
S31508005040704780B483B000AF78607B68D3F880304F
S3150800505018460C37BD465DF8047B704780B483B0AC
S3150800506000AF786039603B681A687B68C3F88020AF
S31508005070002318460C37BD465DF8047B704780B49C
S3150800508083B000AF78607B6803221A600023184655
S315080050900C37BD465DF8047B704780B483B000AF1B
S315080050A078607B681B6803F0030318460C37BD4617
S315080050B05DF8047B704780B485B000AF78603960CE
S315080050C00023FB603B681A687B689A603B685A68ED
S315080050D03B689B681A433B68DB681A433B681B6955
S315080050E01343FA681343FB607B68DB6823F47F632A
S315080050F023F00F03FA681A437B68DA600023184620
S315080051001437BD465DF8047B704780B483B000AFA2
S3150800511078607B681B69DBB218460C37BD465DF8BC
S31508005120047B704780B485B000AF786039607B68CF
S3150800513014331A463B681344FB60FB681B68184621
S315080051401437BD465DF8047B704780B485B000AF60
S31508005150786039600023FB603B681A687B685A628E
S315080051603B685A687B689A623B689A683B68DB6862
S315080051701A433B681B691A433B685B691343FA6821
S315080051801343FB607B68DB6A23F0F702FB681A436C
S315080051907B68DA62002318461437BD465DF8047B3F
S315080051A0704780B588B000AF786039603B68BB60EF
S315080051B01023FB6040233B6100237B614FF480632F
S315080051C0BB6107F1080319467868FFF774FF41F2D7
S315080051D088321021786800F0D7F9F861FB6918461B
S315080051E02037BD4680BD80B588B000AF786039608D
S315080051F03B68BB601123FB6040233B6100237B6156
S315080052004FF48063BB6107F1080319467868FFF716
S3150800521052FF41F288321121786800F0B5F9F86139
S31508005220FB6918462037BD4680BD80B588B000AFFB
S31508005230786039603B68BB601223FB6040233B61A2
S3150800524000237B614FF48063BB6107F108031946AD
S315080052507868FFF730FF41F288321221786800F04B
S3150800526093F9F861FB6918462037BD4680BD80B5BD
S3150800527088B000AF786039603B68BB601823FB6074
S3150800528040233B6100237B614FF48063BB6107F1D8
S31508005290080319467868FFF70EFF41F2883218218D
S315080052A0786800F071F9F861FB6918462037BD4641
S315080052B080BD80B588B000AF786039603B68BB6058
S315080052C01923FB6040233B6100237B614FF4806315
S315080052D0BB6107F1080319467868FFF7ECFE41F24F
S315080052E088321921786800F04FF9F861FB69184689
S315080052F02037BD4680BD000080B588B000AF786015
S315080053000023BB600C23FB6040233B6100237B61C9
S315080053104FF48063BB6107F1080319467868FFF705
S31508005320CAFE054A0C21786800F02EF9F861FB6977
S3150800533018462037BD4680BD00E1F50580B58AB020
S3150800534000AFF860C7E900233B683B6107237B6130
S315080053504023BB610023FB614FF480633B6207F186
S3150800536010031946F868FFF7A6FE41F288320721AE
S31508005370F86800F009F978627B6A18462837BD464E
S3150800538080BD80B588B000AF78600023BB6000237D
S31508005390FB6000233B6100237B614FF48063BB61A4
S315080053A007F1080319467868FFF785FE786800F064
S315080053B023FBF861FB6918462037BD4680BD80B5DA
S315080053C088B000AF78604FF4D573BB600823FB60E4
S315080053D040233B6100237B614FF48063BB6107F187
S315080053E0080319467868FFF766FE786800F0B6FA8B
S315080053F0F861FB6918462037BD4680BD80B588B080
S3150800540000AF786039603B68BB603723FB60402398
S315080054103B6100237B614FF48063BB6107F108039E
S3150800542019467868FFF747FE41F2883237217868CF
S3150800543000F0AAF8F861FB6918462037BD4680BD1A
S3150800544080B588B000AF786039603B6843F00043A8
S3150800545043F48013BB602923FB6040233B61002390
S315080054607B614FF48063BB6107F1080319467868CE
S31508005470FFF721FE786800F0BDF9F861FB69184668
S315080054802037BD4680BD80B588B000AF7860002360
S31508005490BB600223FB60C0233B6100237B614FF4A2
S315080054A08063BB6107F1080319467868FFF703FEB6
S315080054B0786800F057F9F861FB6918462037BD4649
S315080054C080BD80B588B000AF786039603B68BB6046
S315080054D00923FB60C0233B6100237B614FF4806393
S315080054E0BB6107F1080319467868FFF7E4FD786899
S315080054F000F038F9F861FB6918462037BD4680BDCB
S3150800550080B588B000AF786039600023BB6003239C
