S010000066343037766574362E737265638E
S3150800000000000220650A0008BD080008C5080008A7
S31508000010CD080008D5080008DD0800080000000023
S31508000020000000000000000000000000E5080008CD
S31508000030F308000800000000010900080F0900087D
S31508000040B50A0008B50A0008B50A0008B50A000886
S31508000050B50A0008B50A0008B50A0008B50A000876
S31508000060B50A0008B50A0008B50A0008B50A000866
S31508000070B50A0008B50A0008B50A0008B50A000856
S31508000080B50A0008B50A0008B50A0008B50A000846
S31508000090B50A0008B50A0008B50A0008B50A000836
S315080000A0B50A0008B50A0008B50A0008B50A000826
S315080000B0B50A0008B50A0008B50A0008B50A000816
S315080000C0B50A0008B50A0008B50A0008B50A000806
S315080000D0B50A0008B50A00081D090008B50A00088F
S315080000E0B50A0008B50A0008B50A0008B50A0008E6
S315080000F0B50A0008B50A0008B50A0008B50A0008D6
S31508000100B50A0008B50A0008B50A0008B50A0008C5
S31508000110B50A0008B50A0008B50A0008B50A0008B5
S31508000120B50A0008B50A0008B50A0008B50A0008A5
S31508000130B50A0008B50A0008B50A0008B50A000895
S31508000140B50A0008B50A0008B50A0008B50A000885
S31508000150B50A0008B50A0008B50A0008B50A000875
S31508000160B50A0008B50A0008B50A0008B50A000865
S31508000170B50A0008B50A0008B50A0008000000001C
S30D08000180B50A0008B50A0008DB
S3150800018810B5054C237833B9044B13B10448AFF3BB
S3150800019800800123237010BD6800002000000000BD
S315080001A8AC36000808B5034B1BB103490348AFF33F
S315080001B8008008BD000000006C000020AC3600086E
S315080001C853B94AB9002908BF00281CBF4FF0FF31A8
S315080001D84FF0FF3000F088B9ADF1080C6DE904CE90
S315080001E800F006F8DDF804E0DDE9022304B07047FC
S315080001F82DE9F047089D8E4604468846002B4AD1C5
S315080002088A42174662D9B2FA82F64EB1C6F1200377
S3150800021801FA06F820FA03F3B74043EA0808B44097
S315080002284FEA174E1FFA87FCB8FBFEF1230C0EFBA4
S31508000238118843EA084301FB0CF29A4209D9FB18CC
S3150800024801F1FF3080F0EA809A4240F2E7800239ED
S315080002583B449A1AA3B2B2FBFEF00EFB102243EAFD
S31508000268024300FB0CFC9C4509D9FB1800F1FF3238
S3150800027880F0D6809C4540F2D3803B44023840EA59
S315080002880140A3EB0C0300211DB1F3400022C5E988
S315080002980032BDE8F0878B4205D90DB1C5E90001E2
S315080002A800210846F5E7B3FA83F1002946D17345D4
S315080002B802D3824200F20581841A6EEB03020120FA
S315080002C89046002DE5D0C5E90048E2E7002A00F087
S315080002D89080B2FA82F6002E40F0A4808A1A030C9F
S315080002E84FEA174E80B2BCB20121B2FBFEFC0EFBE8
S315080002F81C2243EA024304FB0CF29A4207D9FB186C
S315080003080CF1FF3802D29A4200F2E080C4469B1AE2
S31508000318B3FBFEF20EFB123340EA034302FB04F476
S315080003289C4207D9FB1802F1FF3002D29C4200F220
S31508000338CA8002461B1B42EA0C40A5E7C1F1200603
S315080003488B4022FA06F71F430EFA01F420FA06F341
S315080003582EFA06FE4FEA1749234300FA01F81FFA50
S3150800036887FCBEFBF9F01C0C09FB10EE44EA0E44A8
S3150800037800FB0CFEA64502FA01F209D93C1900F160
S31508000388FF3A80F09C80A64540F2998002383C44A2
S31508000398A4EB0E041FFA83FEB4FBF9F309FB134416
S315080003A84EEA044403FB0CFCA44508D93C1903F19E
S315080003B8FF3E80F08280A4457FD9023B3C4443EA4D
S315080003C80040A4EB0C04A0FB02EC64457346E14626
S315080003D862D35FD05DB1B8EB030264EB090404FA93
S315080003E806F622FA01F31E43CC40C5E9006400214B
S315080003F84FE7B1FBF2FC010C41EA0E4180B240EA34
S3150800040801423B4638463C46B846BE462026B1FB1E
S31508000418F7F1A2EB080241EA0C4166E7014618E73C
S3150800042810462CE7C6F120022EFA02F3B740B1406F
S3150800043820FA02F24FEA174E0A43B3FBFEF8BCB29B
S315080004480EFB1833110C41EA034108FB04F9B040C6
S3150800045889454FEA104380B23ED9791808F1FF3C1E
S3150800046801D289451FD8A1EB0901B1FBFEF909FBA1
S3150800047804F80EFB191192B242EA0142424529D202
S31508000488BA1809F1FF31C4D24245C2D2A9F102010C
S315080004983A44BEE7F0459DD2BEEB02036CEB070C67
S315080004A80138E14696E7A7EB09094944A8F1020C81
S315080004B8B1FBFEF909FB04F8DBE773467FE750460C
S315080004C866E70846FDE63B44023A33E7ACF1020C18
S315080004D83B441CE749469CE7A1EB0901C446B1FB26
S315080004E8FEF909FB04F8C4E7704700BF80B586B073
S315080004F800AFF860B9607A6000237B610AE07B691F
S31508000508BA68134401221946002002F0BDFB7B692C
S3150800051801337B617A697B689A42F0DB7B68184607
S315080005281837BD4680BD000080B500AF144802F0F4
S3150800053817FD00F0BDFA00F027F800F0D7F800F02C
S3150800054881F800F0A9F8012240210E4802F0CFFBF5
S31508000558E82002F0BFFB002240210A4802F0C7FB48
S3150800056801228021074802F0C2FBE82002F0B2FB0C
S3150800057800228021034802F0BAFB00BFE3E700BF68
S31508000588C43600080000024080B594B000AF07F1F1
S31508000598200330220021184602F0C2FD07F10C0399
S315080005A800221A605A609A60DA601A610023BB60F2
S315080005B8224B1B6C214A43F0805313641F4B1B6C58
S315080005C803F08053BB60BB6800237B601C4B1B6829
S315080005D81B4A43F480431360194B1B6803F4804392
S315080005E87B607B6802233B620123FB6210233B6323
S315080005F80023BB6307F12003184600F049FE0346AB
S31508000608002B01D000F0A4F80F23FB6000233B6100
S3150800061800237B610023BB610023FB6107F10C0300
S315080006280021184601F0ACF80346002B01D000F06B
S315080006388FF800BF5037BD4680BD00BF003802405E
S315080006480070004080B500AF114B124A1A60104B73
S315080006584FF4E1325A600E4B00229A600C4B002286
S31508000668DA600B4B00221A61094B0C225A61084BB7
S3150800067800229A61064B0022DA61054801F060FA01
S315080006880346002B01D000F063F800BF80BD00BF09
S31508000698840000200010014080B500AF114B124AB3
S315080006A81A60104B4FF4E1325A600E4B00229A60DA
S315080006B80C4B0022DA600B4B00221A61094B0C22FC
S315080006C85A61084B00229A61064B0022DA610548EE
S315080006D801F036FA0346002B01D000F039F800BFBE
S315080006E880BD00BFCC0000200044004080B586B01D
S315080006F800AF3B1D00221A605A609A60DA601A61D8
S3150800070800233B60104B1B6B0F4A43F0010313632E
S315080007180D4B1B6B03F001033B603B680022C021AD
S315080007280A4800F09BFDC0237B600123BB600023B9
S31508000738FB6000233B613B1D1946044800F0F2FBA9
S3150800074800BF1837BD4680BD003802400000024089
S3150800075880B400AF72B600BF00BFFDE780B483B0AF
S3150800076800AF00237B60104B5B6C0F4A43F4804351
S3150800077853640D4B5B6C03F480437B607B680023F2
S315080007883B60094B1B6C084A43F080531364064BBD
S315080007981B6C03F080533B603B6800BF0C37BD46B3
S315080007A85DF8047B704700BF0038024080B58CB0FE
S315080007B800AF786007F11C0300221A605A609A6035
S315080007C8DA601A617B681B68364A93422DD1002382
S315080007D8BB61354B5B6C344A43F010035364324BA8
S315080007E85B6C03F01003BB61BB6900237B612E4B6E
S315080007F81B6B2D4A43F0010313632B4B1B6B03F04A
S3150800080801037B617B694FF4C063FB6102233B628A
S3150800081800237B620323BB620723FB6207F11C03E1
S315080008281946224800F07EFB38E07B681B68204A98
S31508000838934233D100233B611B4B1B6C1A4A43F482
S3150800084800331364184B1B6C03F400333B613B6994
S315080008580023FB60144B1B6B134A43F00103136315
S31508000868114B1B6B03F00103FB60FB680C23FB6150
S3150800087802233B6200237B620323BB620723FB62D6
S3150800088807F11C031946094800F04CFB0022002111
S31508000898262000F07EFA262000F097FA00BF3037A7
S315080008A8BD4680BD001001400038024000000240E5
S315080008B80044004080B400AF00BFFDE780B400AF35
S315080008C800BFFDE780B400AF00BFFDE780B400AF06
S315080008D800BFFDE780B400AF00BFFDE780B400AFF6
S315080008E800BFBD465DF8047B704780B400AF00BF03
S315080008F8BD465DF8047B704780B400AF00BFBD46AF
S315080009085DF8047B704780B500AF00F023F900BF97
S3150800091880BD000080B500AF024801F061F900BF4C
S3150800092880BD00BFCC00002080B586B000AFF86057
S31508000938B9607A6000237B610AE0AFF3008001465C
S31508000948BB685A1CBA60CAB21A707B6901337B61E4
S315080009587A697B689A42F0DB7B6818461837BD4681
S3150800096880BD80B483B000AF78604FF0FF33184677
S315080009780C37BD465DF8047B704780B483B000AF7A
S31508000988786039603B684FF400525A60002318466D
S315080009980C37BD465DF8047B704780B483B000AF5A
S315080009A87860012318460C37BD465DF8047B704706
S315080009B880B485B000AFF860B9607A60002318463D
S315080009C81437BD465DF8047B7047000080B586B0CD
S315080009D800AF7860144A154BD31A7B617B693B6173
S315080009E8134B1B68002B02D1114B124A1A60104B85
S315080009F81A687B6813443A699A4207D202F0DEFB02
S31508000A0803460C221A604FF0FF3309E0084B1B68AF
S31508000A18FB60074B1A687B681344054A1360FB6832
S31508000A2818461837BD4680BD00000220000400009D
S31508000A38140100202007002080B400AF064BD3F825
S31508000A488830054A43F47003C2F8883000BFBD46AB
S31508000A585DF8047B704700BF00ED00E0DFF834D08E
S31508000A68FFF7EAFF0C480D490D4A002302E0D4585F
S31508000A78C4500433C4188C42F9D30A4A0A4C0023D2
S31508000A8801E013600432A242FBD302F09DFBFFF794
S31508000A984BFD704700000220000000206800002077
S31508000AA8303700086800002020070020FEE700000D
S31508000AB880B500AF0E4B1B680D4A43F400731360EC
S31508000AC80B4B1B680A4A43F480631360084B1B6880
S31508000AD8074A43F480731360032000F04FF90F2088
S31508000AE800F008F8FFF73AFE0023184680BD00BF55
S31508000AF8003C024080B582B000AF7860124B1A6895
S31508000B08124B1B7819464FF47A73B3FBF1F3B2FB11
S31508000B18F3F3184600F067F90346002B01D00123C2
S31508000B280EE07B680F2B0AD8002279684FF0FF3051
S31508000B3800F02FF9064A7B681360002300E00123BA
S31508000B4818460837BD4680BD00000020080000206A
S31508000B580400002080B400AF064B1B781A46064BE3
S31508000B681B681344044A136000BFBD465DF8047B3E
S31508000B78704700BF080000201801002080B400AFA5
S31508000B88034B1B681846BD465DF8047B704700BFD3
S31508000B981801002080B584B000AF7860FFF7EEFF33
S31508000BA8B8607B68FB60FB68B3F1FF3F05D00A4B6A
S31508000BB81B781A46FB681344FB6000BFFFF7DEFF85
S31508000BC80246BB68D31AFA689A42F7D800BF00BF2C
S31508000BD81037BD4680BD00BF0800002080B485B028
S31508000BE800AF78607B6803F00703FB600C4BDB6893
S31508000BF8BB60BA684FF6FF031340BB60FB681A026E
S31508000C08BB68134343F0BF6343F40033BB60044A2D
S31508000C18BB68D36000BF1437BD465DF8047B7047D0
S31508000C2800ED00E080B400AF044BDB681B0A03F054
S31508000C3807031846BD465DF8047B704700ED00E0DB
S31508000C4880B483B000AF0346FB7197F90730002BD1
S31508000C580BDBFB7903F01F02074997F907305B0995
S31508000C68012000FA02F241F8232000BF0C37BD46DE
S31508000C785DF8047B704700BF00E100E080B483B0EC
S31508000C8800AF03463960FB7197F90730002B0ADB7A
S31508000C983B68DAB20C4997F907301201D2B20B440D
S31508000CA883F800230AE03B68DAB20849FB7903F0BF
S31508000CB80F03043B1201D2B20B441A7600BF0C3755
S31508000CC8BD465DF8047B704700E100E000ED00E0F2
S31508000CD880B489B000AFF860B9607A60FB6803F041
S31508000CE80703FB61FB69C3F10703042B28BF042329
S31508000CF8BB61FB690433062B02D9FB69033B00E099
S31508000D0800237B614FF0FF32BB6902FA03F3DA432B
S31508000D18BB681A407B699A404FF0FF317B6901FA34
S31508000D2803F3D9437B680B40134318462437BD465B
S31508000D385DF8047B7047000080B582B000AF786024
S31508000D487B68013BB3F1807F01D301230FE00A4A90
S31508000D587B68013B53600F214FF0FF30FFF78EFF8A
S31508000D68054B00229A60044B07221A60002318468E
S31508000D780837BD4680BD00BF10E000E080B582B0E8
S31508000D8800AF78607868FFF729FF00BF0837BD46C7
S31508000D9880BD80B586B000AF0346B9607A60FB733C
S31508000DA800237B61FFF73EFF78617A68B96878693E
S31508000DB8FFF78EFF024697F90F3011461846FFF7D8
S31508000DC85DFF00BF1837BD4680BD80B582B000AF4D
S31508000DD80346FB7197F907301846FFF731FF00BF3E
S31508000DE80837BD4680BD80B582B000AF78607868A0
S31508000DF8FFF7A2FF034618460837BD4680BD80B5EB
S31508000E0884B000AF78607B689B6DFB60FFF7B6FE21
S31508000E18B8607B6893F83530DBB2022B08D07B685C
S31508000E2880225A657B68002283F83420012352E021
S31508000E387B681B681A687B681B6822F016021A60AA
S31508000E487B681B685A697B681B6822F080025A61AE
S31508000E587B681B6C002B03D17B689B6C002B07D027
S31508000E687B681B681A687B681B6822F008021A6088
S31508000E787B681B681A687B681B6822F001021A607F
S31508000E8813E0FFF77BFE0246BB68D31A052B0CD97D
S31508000E987B6820225A657B68032283F835207B689D
S31508000EA8002283F83420032315E07B681B681B6837
S31508000EB803F00103002BE4D17B68DB6D3F229A40DF
S31508000EC8FB689A607B68012283F835207B680022D4
S31508000ED883F83420002318461037BD4680BD80B4F1
S31508000EE883B000AF78607B6893F83530DBB2022BA5
S31508000EF804D07B6880225A6501230CE07B680522AA
S31508000F0883F835207B681B681A687B681B6822F09B
S31508000F1801021A60002318460C37BD465DF8047BA3
S31508000F287047000080B489B000AF78603960002344
S31508000F387B6100233B610023BB610023FB616BE1F6
S31508000F480122FB6902FA03F37B613B681B687A692D
S31508000F5813403B613A697B699A4240F05A813B687B
S31508000F685B6803F00303012B05D03B685B6803F055
S31508000F780303022B30D17B689B68BB61FB695B0066
S31508000F88032202FA03F3DB43BA691340BB613B68E1
S31508000F98DA68FB695B0002FA03F3BA691343BB61B3
S31508000FA87B68BA699A607B685B68BB610122FB69E2
S31508000FB802FA03F3DB43BA691340BB613B685B6813
S31508000FC81B0903F00102FB6902FA03F3BA69134322
S31508000FD8BB617B68BA695A603B685B6803F00303C0
S31508000FE8032B17D07B68DB68BB61FB695B000322B0
S31508000FF802FA03F3DB43BA691340BB613B689A6894
S31508001008FB695B0002FA03F3BA691343BB617B68A1
S31508001018BA69DA603B685B6803F00303022B23D1DD
S31508001028FB69DA087B68083253F82230BB61FB692A
S3150800103803F007039B000F2202FA03F3DB43BA699E
S315080010481340BB613B681A69FB6903F007039B00F9
S3150800105802FA03F3BA691343BB61FB69DA087B68CA
S315080010680832B96943F822107B681B68BB61FB69BB
S315080010785B00032202FA03F3DB43BA691340BB6138
S315080010883B685B6803F00302FB695B0002FA03F33B
S31508001098BA691343BB617B68BA691A603B685B68BF
S315080010A803F44033002B00F0B4800023FB60604B48
S315080010B85B6C5F4A43F4804353645D4B5B6C03F493
S315080010C88043FB60FB685B4AFB699B08023352F85E
S315080010D82330BB61FB6903F003039B000F2202FA66
S315080010E803F3DB43BA691340BB617B68524A9342F0
S315080010F82BD07B68514A934225D07B68504A934245
S315080011081FD07B684F4A934219D07B684E4A934250
S3150800111813D07B684D4A93420DD07B684C4A93425C
S3150800112807D07B684B4A934201D107230EE0082370
S315080011380CE006230AE0052308E0042306E0032357
S3150800114804E0022302E0012300E00023FA6902F022
S31508001158030292009340BA691343BB613549FB6998
S315080011689B080233BA6941F823203B4B9B68BB614D
S315080011783B69DB43BA691340BB613B685B6803F4A8
S315080011888013002B03D0BA693B691343BB61324A03
S31508001198BB699360304BDB68BB613B69DB43BA6963
S315080011A81340BB613B685B6803F40013002B03D04C
S315080011B8BA693B691343BB61274ABB69D360264BA7
S315080011C85B68BB613B69DB43BA691340BB613B6833
S315080011D85B6803F40033002B03D0BA693B691343F1
S315080011E8BB611D4ABB6953601B4B1B68BB613B69E6
S315080011F8DB43BA691340BB613B685B6803F4803319
S31508001208002B03D0BA693B691343BB61124ABB6911
S315080012181360FB690133FB61FB690F2B7FF690AE00
S3150800122800BF00BF2437BD465DF8047B704700BF82
S31508001238003802400038014000000240000402401D
S3150800124800080240000C0240001002400014024048
S3150800125800180240001C0240003C014080B483B0DC
S3150800126800AF78600B467B8013467B707B78002B33
S3150800127803D07A887B689A6103E07B881A047B68BE
S315080012889A6100BF0C37BD465DF8047B70470000BD
S3150800129880B586B000AF78607B68002B01D1012342
S315080012A867E27B681B6803F00103002B75D0884B3F
S315080012B89B6803F00C03042B0CD0854B9B6803F042
S315080012C80C03082B12D1824B5B6803F48003B3F531
S315080012D8800F0BD17E4B1B6803F40033002B5BD0C1
S315080012E87B685B68002B57D1012342E27B685B6801
S315080012F8B3F5803F06D1764B1B68754A43F48033AD
S3150800130813601DE07B685B68B3F5A02F0CD1704BA2
S315080013181B686F4A43F4802313606D4B1B686C4A3D
S3150800132843F4803313600BE0694B1B68684A23F45F
S3150800133880331360664B1B68654A23F48023136061
S315080013487B685B68002B13D0FFF718FC386108E048
S31508001358FFF714FC02463B69D31A642B01D9032309
S3150800136807E25B4B1B6803F40033002BF0D014E04C
S31508001378FFF704FC386108E0FFF700FC02463B6902
S31508001388D31A642B01D90323F3E1514B1B6803F4E1
S315080013980033002BF0D100E000BF7B681B6803F020
S315080013A80203002B63D04A4B9B6803F00C03002BFF
S315080013B80BD0474B9B6803F00C03082B1CD1444BF6
S315080013C85B6803F48003002B16D1414B1B6803F0B6
S315080013D80203002B05D07B68DB68012B01D00123AB
S315080013E8C7E13B4B1B6823F0F8027B681B69DB00E7
S315080013F8374913430B603AE07B68DB68002B20D03B
S31508001408344B01221A60FFF7B9FB386108E0FFF789
S31508001418B5FB02463B69D31A022B01D90323A8E177
S315080014282B4B1B6803F00203002BF0D0284B1B68D4
S3150800143823F0F8027B681B69DB00254913430B6018
S3150800144815E0244B00221A60FFF798FB386108E07C
S31508001458FFF794FB02463B69D31A022B01D90323EB
S3150800146887E11B4B1B6803F00203002BF0D17B684E
S315080014781B6803F00803002B36D07B685B69002BD2
S3150800148816D0154B01221A60FFF778FB386108E079
S31508001498FFF774FB02463B69D31A022B01D90323CB
S315080014A867E10B4B5B6F03F00203002BF0D01BE0E0
S315080014B8094B00221A60FFF761FB38610EE0FFF757
S315080014C85DFB02463B69D31A022B07D9032350E171
S315080014D80038024000004742800E4742884B5B6F3F
S315080014E803F00203002BEAD17B681B6803F00403A8
S315080014F8002B00F097800023FB75814B1B6C03F0CB
S315080015088053002B0FD10023BB607D4B1B6C7C4A94
S3150800151843F0805313647A4B1B6C03F08053BB600B
S31508001528BB680123FB75774B1B6803F48073002B94
S3150800153818D1744B1B68734A43F480731360FFF71A
S315080015481DFB386108E0FFF719FB02463B69D31A09
S31508001558022B01D903230CE16A4B1B6803F4807339
S31508001568002BF0D07B689B68012B06D1644B1B6F58
S31508001578634A43F0010313671CE07B689B68052BE5
S315080015880CD15F4B1B6F5E4A43F0040313675C4B31
S315080015981B6F5B4A43F0010313670BE0584B1B6F3D
S315080015A8574A23F001031367554B1B6F544A23F018
S315080015B8040313677B689B68002B15D0FFF7DEFAD0
S315080015C838610AE0FFF7DAFA02463B69D31A41F2AC
S315080015D88832934201D90323CBE0494B1B6F03F0AA
S315080015E80203002BEED014E0FFF7C8FA38610AE0C8
S315080015F8FFF7C4FA02463B69D31A41F28832934286
S3150800160801D90323B5E03E4B1B6F03F00203002BF9
S31508001618EED1FB7D012B05D1394B1B6C384A23F0DB
S31508001628805313647B689B69002B00F0A180344BB8
S315080016389B6803F00C03082B5CD07B689B69022B1C
S3150800164841D1314B00221A60FFF798FA386108E051
S31508001658FFF794FA02463B69D31A022B01D90323EA
S3150800166887E0274B1B6803F00073002BF0D17B68D3
S31508001678DA697B681B6A1A437B685B6A9B011A43AB
S315080016887B689B6A5B08013B1B041A437B68DB6A19
S315080016981B061B4913434B601B4B01221A60FFF7B5
S315080016A86DFA386108E0FFF769FA02463B69D31A0A
S315080016B8022B01D903235CE0114B1B6803F0007366
S315080016C8002BF0D054E0104B00221A60FFF756FAA8
S315080016D8386108E0FFF752FA02463B69D31A022B2B
S315080016E801D9032345E0064B1B6803F00073002B5A
S315080016F8F0D13DE07B689B69012B07D1012338E0CF
S315080017080038024000700040600047421B4B5B6887
S31508001718FB607B689B69012B28D0FB6803F4800271
S315080017287B68DB699A4221D1FB6803F03F027B6834
S315080017381B6A9A421AD1FA6847F6C07313407A6840
S31508001748526A9201934211D1FB6803F440327B68CE
S315080017589B6A5B08013B1B049A4207D1FB6803F0A6
S3150800176870627B68DB6A1B069A4201D0012300E097
S31508001778002318461837BD4680BD00BF003802400A
S3150800178880B584B000AF786039607B68002B01D1DA
S315080017980123CCE0684B1B6803F007033A689A42B2
S315080017A80CD9654B3A68D2B21A70634B1B6803F0BA
S315080017B807033A689A4201D00123B8E07B681B6898
S315080017C803F00203002B20D07B681B6803F0040390
S315080017D8002B05D0594B9B68584A43F4E05393604D
S315080017E87B681B6803F00803002B05D0534B9B68DE
S315080017F8524A43F460439360504B9B6823F0F002C7
S315080018087B689B684D4913438B607B681B6803F0AC
S315080018180103002B44D07B685B68012B07D1474B33
S315080018281B6803F40033002B19D101237FE07B687A
S315080018385B68022B03D07B685B68032B07D13F4B99
S315080018481B6803F00073002B09D101236FE03B4B9B
S315080018581B6803F00203002B01D1012367E0374B0D
S315080018689B6823F003027B685B68344913438B60E3
S31508001878FFF784F9F8600AE0FFF780F90246FB6883
S31508001888D31A41F28832934201D903234FE02B4BEE
S315080018989B6803F00C027B685B689B009A42EBD155
S315080018A8254B1B6803F007033A689A420CD2224B69
S315080018B83A68D2B21A70204B1B6803F007033A68D5
S315080018C89A4201D0012332E07B681B6803F00403BF
S315080018D8002B08D0194B9B6823F4E0527B68DB6819
S315080018E8164913438B607B681B6803F00803002BB3
S315080018F809D0124B9B6823F460427B681B69DB009E
S315080019080E4913438B6000F021F802460B4B9B687F
S315080019181B0903F00F030A49CB5C22FA03F3094AA9
S315080019281360094B1B681846FFF7E4F800231846A6
S315080019381037BD4680BD00BF003C02400038024053
S31508001948F436000800000020040000202DE9B04FF6
S3150800195890B000AF00237B630023FB6300233B633F
S315080019680023BB63594B9B6803F00C03082B0DD067
S31508001978082B00F2A180002B02D0042B03D09BE091
S31508001988534BBB639BE0534BBB6398E04F4B5B6879
S3150800199803F03F037B634D4B5B6803F48003002B1E
S315080019A828D04A4B5B689B0900223B627A623B6AED
S315080019B8C3F308000021474B03FB01F2002300FB91
S315080019C803F31344434AA0FB0212FA620A46BA62B0
S315080019D8FA6A1344FB627B6B0022BB61FA61D7E99A
S315080019E80623D7E90A01FEF7EBFB02460B46134620
S315080019F8FB6353E0354B5B689B0900223B617A61C0
S31508001A083B69C3F3080A4FF0000B52465B464FF092
S31508001A1800004FF00001590141EAD261500102461F
S31508001A280B46B2EB0A0863EB0B094FF000024FF0BE
S31508001A3800034FEA891343EA98634FEA8812B2EB20
S31508001A48080463EB09054FF000024FF00003EB00AA
S31508001A5843EA5473E20014461D4614EB0A033B6036
S31508001A6845EB0B037B604FF000024FF00003D7E904
S31508001A78004529468B02214643EA915321468A02A4
S31508001A88104619467B6B0022BB60FA60D7E9022329
S31508001A98FEF796FB02460B461346FB630B4B5B6841
S31508001AA81B0C03F0030301335B003B63FA6B3B6BC8
S31508001AB8B2FBF3F3BB6302E0054BBB6300BFBB6B2A
S31508001AC818464037BD46BDE8B08F00BF003802400B
S31508001AD80024F40040787D0180B400AF034B1B68EE
S31508001AE81846BD465DF8047B704700BF0000002015
S31508001AF880B500AFFFF7F0FF0246054B9B689B0AC7
S31508001B0803F007030349CB5C22FA03F3184680BDA2
S31508001B18003802400437000880B500AFFFF7DCFF3D
S31508001B280246054B9B685B0B03F007030349CB5C2E
S31508001B3822FA03F3184680BD003802400437000825
S31508001B4880B582B000AF78607B68002B01D101238D
S31508001B5842E07B6893F84130DBB2002B06D17B68FC
S31508001B68002283F840207868FEF720FE7B68242246
S31508001B7883F841207B681B68DA687B681B6822F44F
S31508001B880052DA60786800F099FC7B681B681A6965
S31508001B987B681B6822F490421A617B681B685A693D
S31508001BA87B681B6822F02A025A617B681B68DA6818
S31508001BB87B681B6842F40052DA607B6800225A6424
S31508001BC87B68202283F841207B68202283F84220FC
S31508001BD87B6800225A63002318460837BD4680BD2D
S31508001BE880B5BAB000AF78607B681B681B68C7F811
S31508001BF8E4307B681B68DB68C7F8E0307B681B68DD
S31508001C085B69C7F8DC300023C7F8D8300023C7F863
S31508001C18D430D7F8E43003F00F03C7F8D830D7F82C
S31508001C28D830002B0FD1D7F8E43003F02003002B67
S31508001C3809D0D7F8E03003F02003002B03D07868E2
S31508001C4800F07EFB73E2D7F8D830002B00F0DE8070
S31508001C58D7F8DC3003F00103002B06D1D7F8E030BB
S31508001C6803F49073002B00F0D180D7F8E43003F022
S31508001C780103002B0BD0D7F8E03003F48073002B50
S31508001C8805D07B685B6C43F001027B685A64D7F819
S31508001C98E43003F00403002B0BD0D7F8DC3003F04C
S31508001CA80103002B05D07B685B6C43F002027B6856
S31508001CB85A64D7F8E43003F00203002B0BD0D7F8A0
S31508001CC8DC3003F00103002B05D07B685B6C43F01E
S31508001CD804027B685A64D7F8E43003F00803002B3B
S31508001CE811D0D7F8E03003F02003002B05D1D7F838
S31508001CF8DC3003F00103002B05D07B685B6C43F0EE
S31508001D0808027B685A647B685B6C002B00F00A82C1
S31508001D18D7F8E43003F02003002B08D0D7F8E030D2
S31508001D2803F02003002B02D0786800F009FB7B68D3
S31508001D381B685B6903F04003402B0CBF0123002393
S31508001D48DBB2C7F8D4307B685B6C03F00803002B5A
S31508001D5803D1D7F8D430002B4FD0786800F014FA9E
S31508001D687B681B685B6903F04003402B41D17B689D
S31508001D781B681433C7F89C30D7F89C3053E8003FE3
S31508001D88C7F89830D7F8983023F04003C7F8D0300A
S31508001D987B681B681433D7F8D020C7F8A820C7F87B
S31508001DA8A430D7F8A410D7F8A82041E80023C7F824
S31508001DB8A030D7F8A030002BD9D17B68DB6B002B75
S31508001DC813D07B68DB6B8A4A1A657B68DB6B184617
S31508001DD8FFF785F80346002B16D07B68DB6B1B6D6F
S31508001DE87A68D26B104698470EE0786800F0B6F91C
S31508001DF80AE0786800F0B2F906E0786800F0AEF90B
S31508001E087B6800225A648DE100BF8BE17B681B6BF7
S31508001E18012B40F06781D7F8E43003F01003002B54
S31508001E2800F06081D7F8E03003F01003002B00F0CB
S31508001E3859810023BB607B681B681B68BB607B688D
S31508001E481B685B68BB60BB687B681B685B6903F0DB
S31508001E584003402B40F0CE807B68DB6B1B685B68D1
S31508001E68A7F8BE30B7F8BE30002B00F0A9807B680B
S31508001E789B8DB7F8BE209A4280F0A2807B68B7F897
S31508001E88BE20DA857B68DB6BDB69B3F5807F00F0FB
S31508001E9888807B681B680C33C7F88830D7F8883081
S31508001EA853E8003FC7F88430D7F8843023F48073A2
S31508001EB8C7F8B8307B681B680C33D7F8B820C7F85A
S31508001EC89420C7F89030D7F89010D7F8942041E8AE
S31508001ED80023C7F88C30D7F88C30002BD9D17B680B
S31508001EE81B6814337B677B6F53E8003F3B673B6F80
S31508001EF823F00103C7F8B4307B681B681433D7F896
S31508001F08B420C7F88020FB67F96FD7F8802041E826
S31508001F180023BB67BB6F002BE1D17B681B681433B2
S31508001F283B663B6E53E8003FFB65FB6D23F04003B9
S31508001F38C7F8B0307B681B681433D7F8B020FA6640
S31508001F48BB66B96EFA6E41E800237B667B6E002B8A
S31508001F58E3D17B68202283F842207B6800221A6333
S31508001F687B681B680C33FB64FB6C53E8003FBB6457
S31508001F78BB6C23F01003C7F8AC307B681B680C33BE
S31508001F88D7F8AC20BA657B65796DBA6D41E8002348
S31508001F983B653B6D002BE3D17B68DB6B1846FEF788
S31508001FA82EFF7B6802225A637B689A8D7B68DB8DD5
S31508001FB89BB2D31A9BB21946786800F0D9F8B3E0F1
S31508001FC87B689B8DB7F8BE209A4240F0AD807B6847
S31508001FD8DB6BDB69B3F5807F40F0A6807B6802225D
S31508001FE85A637B689B8D1946786800F0C1F89BE0B0
S31508001FF8572200087B689A8D7B68DB8D9BB2D31ABB
S31508002008A7F8CE307B68DB8D9BB2002B00F08E805C
S31508002018B7F8CE30002B00F089807B681B680C3334
S31508002028BB63BB6B53E8003F7B637B6B23F49073FE
S31508002038C7F8C8307B681B680C33D7F8C8207A6499
S315080020483B64396C7A6C41E80023FB63FB6B002B15
S31508002058E3D17B681B6814337B627B6A53E8003FCD
S315080020683B623B6A23F00103C7F8C4307B681B68E8
S315080020781433D7F8C4203A63FB62F96A3A6B41E825
S315080020880023BB62BB6A002BE3D17B68202283F856
S3150800209842207B6800221A637B681B680C333B6105
S315080020A83B6953E8003FFB60FB6823F01003C7F859
S315080020B8C0307B681B680C33D7F8C020FA61BB614F
S315080020C8B969FA6941E800237B617B69002BE3D18A
S315080020D87B6802225A63B7F8CE301946786800F04A
S315080020E847F823E0D7F8E43003F08003002B09D03B
S315080020F8D7F8E03003F08003002B03D0786800F0A7
S31508002108B7F814E0D7F8E43003F04003002B0ED0F4
S31508002118D7F8E03003F04003002B08D0786800F0C1
S31508002128F7F804E000BF02E000BF00E000BFE837A8
S31508002138BD4680BD80B483B000AF786000BF0C3759
S31508002148BD465DF8047B704780B483B000AF7860FD
S3150800215800BF0C37BD465DF8047B704780B483B072
S3150800216800AF786000BF0C37BD465DF8047B704742
S3150800217880B483B000AF78600B467B8000BF0C370D
S31508002188BD465DF8047B704780B495B000AF7860AB
S315080021987B681B680C337B637B6B53E8003F3B63A8
S315080021A83B6B23F49073FB647B681B680C33FA6CEF
S315080021B83A64FB63F96B3A6C41E80023BB63BB6B73
S315080021C8002BE5D17B681B6814333B623B6A53E8EE
S315080021D8003FFB61FB6923F00103BB647B681B684E
S315080021E81433BA6CFA62BB62B96AFA6A41E8002320
S315080021F87B627B6A002BE5D17B681B6B012B19D1A7
S315080022087B681B680C33FB60FB6853E8003FBB60C0
S31508002218BB6823F010037B647B681B680C337A6CF5
S31508002228BA617B617969BA6941E800233B613B6910
S31508002238002BE5D17B68202283F842207B680022A0
S315080022481A6300BF5437BD465DF8047B704780B5EE
S3150800225884B000AF78607B689B6BFB60FB680022E4
S31508002268DA85F868FFF77AFF00BF1037BD4680BDE4
S3150800227880B485B000AF78607B6893F84130DBB2EC
S31508002288212B3ED17B689B68B3F5805F14D17B68A8
S315080022981B69002B10D17B681B6AFB60FB681B88CF
S315080022A81A467B681B68C2F308025A607B681B6A71
S315080022B89A1C7B681A6208E07B681B6A591C7A684C
S315080022C811621A787B681B685A607B68DB8C9BB23C
S315080022D8013B9BB27A681946D184002B0FD17B68DB
S315080022E81B68DA687B681B6822F08002DA607B68FC
S315080022F81B68DA687B681B6842F04002DA600023CC
S3150800230800E0022318461437BD465DF8047B70477B
S3150800231880B582B000AF78607B681B68DA687B682E
S315080023281B6822F04002DA607B68202283F8412085
S315080023387868FFF7FFFE002318460837BD4680BDB4
S3150800234880B58CB000AF78600023FB620023BB62BF
S315080023587B6893F84230DBB2222B40F0AA807B6870
S315080023689B68B3F5805F15D17B681B69002B11D173
S315080023787B689B6ABB627B681B685B689BB2C3F316
S3150800238808039AB2BB6A1A807B689B6A9A1C7B68A0
S315080023989A6224E07B689B6AFB627B689B68B3F554
S315080023A8805F07D07B689B68002B0AD17B681B690E
S315080023B8002B06D17B681B685B68DAB2FB6A1A7061
S315080023C808E07B681B685B68DBB203F07F03DAB258
S315080023D8FB6A1A707B689B6A5A1C7B689A627B68D8
S315080023E8DB8D9BB2013B9BB27A681946D185002BD7
S315080023F85DD17B681B68DA687B681B6822F0200257
S31508002408DA607B681B68DA687B681B6822F4807266
S31508002418DA607B681B685A697B681B6822F00102C8
S315080024285A617B68202283F842207B6800225A6317
S315080024387B681B6B012B35D17B6800221A637B6886
S315080024481B680C337B617B6953E8003F3B613B693A
S3150800245823F010037B627B681B680C337A6A3A623E
S31508002468FB61F9693A6A41E80023BB61BB69002B3D
S31508002478E5D17B681B681B6803F01003102B0AD18B
S315080024880023FB607B681B681B68FB607B681B680E
S315080024985B68FB60FB687B689B8D19467868FFF765
S315080024A867FE02E07868FFF74FFE002302E0002384
S315080024B800E0022318463037BD4680BD2DE9B04FE7
S315080024C8C0B000AFC7F8F400D7F8F4301B681B692A
S315080024D823F44050D7F8F430D968D7F8F4301A6896
S315080024E840EA01031361D7F8F4309A68D7F8F4304C
S315080024F81B691A43D7F8F4305B691A43D7F8F430DE
S31508002508DB691343C7F8F830D7F8F4301B68DB687B
S3150800251823F4164121F00C01D7F8F4301A68D7F8D5
S31508002528F8300B43D360D7F8F4301B685B6923F49B
S315080025384070D7F8F4309969D7F8F4301A6840EA41
S3150800254801035361D7F8F4301A688F4B9A4205D0BD
S31508002558D7F8F4301A688D4B9A4204D1FFF7DCFA9B
S31508002568C7F8FC0003E0FFF7C3FAC7F8FC00D7F87A
S31508002578F430DB69B3F5004F40F00C81D7F8FC302E
S315080025880022C7F8E830C7F8EC20D7E93A452246CA
S315080025982B469118B9655B41FB65D7E91623214691
S315080025A812EB0108294643EB01094FF000024FF0E8
S315080025B800034FEAC90343EA58734FEAC80290462C
S315080025C89946234618EB0303C7F8E0302B4649EB30
S315080025D80303C7F8E430D7F8F4305B680022C7F875
S315080025E8D830C7F8DC20D7E936120B46DB183B6526
S315080025F8134642EB03037B65D7E91423D7E9380169
S31508002608FDF7DEFD02460B46614BA3FB02235B0979
S315080026181C01D7F8FC300022C7F8D030C7F8D420F8
S31508002628D7E9348942464B469118B9645B41FB643D
S31508002638D7E91223414612EB010A494643EB010B37
S315080026484FF000024FF000034FEACB0343EA5A73F0
S315080026584FEACA0292469B4643461AEB0303C7F853
S31508002668C8304B464BEB0303C7F8CC30D7F8F430E1
S315080026785B680022C7F8C030C7F8C420D7E930120B
S315080026880B46DB183B64134642EB03037B64D7E926
S315080026981023D7E93201FDF793FD02460B4611468A
S315080026A83B4BA3FB01235B09642202FB03F3CB1A0A
S315080026B8DB0003F13202364BA3FB02235B095B00FE
S315080026C803F4F8731C44D7F8FC300022C7F8B8306E
S315080026D8C7F8BC20D7E92E8942464B469118B963F4
S315080026E85B41FB63D7E90E234146511839634946CE
S315080026F84B417B634FF000024FF00003D7E90CAB60
S315080027085946CB00514643EA51735146CA0010460A
S315080027181946034642469B18C7F8B0304B460A4640
S3150800272842EB0303C7F8B430D7F8F4305B680022E5
S31508002738C7F8A830C7F8AC20D7E92A120B46DB1821
S31508002748BB62134642EB0303FB62D7E90A23D7E9C0
S315080027582C01FDF735FD02460B460D4BA3FB02136C
S315080027685B09642101FB03F3D31ADB003233084AF9
S31508002778A2FB03235B0903F00702D7F8F4301B68AA
S3150800278822449A6006E100BF001001400014014087
S315080027981F85EB51D7F8FC300022C7F8A030C7F8D8
S315080027A8A420D7E9288942464B46911839625B41E5
S315080027B87B62D7E9082341465418494643EB010585
S315080027C84FF000024FF00003EB0043EA5473E200AF
S315080027D814461D464346E318C7F898304B4645EB5A
S315080027E80303C7F89C30D7F8F4305B680022C7F8AB
S315080027F89030C7F894204FF000024FF00003D7E94D
S31508002808244529468B00214643EA917321468A00C6
S31508002818D7E92601FDF7D4FC02460B46604BA3FB15
S3150800282802235B091C01D7F8FC300022C7F8883058
S31508002838C7F88C20D7E9228942464B469118B961D0
S315080028485B41FB61D7E90623414651183961494678
S315080028584B417B614FF000024FF00003D7E904AB08
S315080028685946CB00514643EA51735146CA001046A9
S315080028781946034642469B18C7F880304B460A460F
S3150800288842EB0303C7F88430D7F8F4305B680022B4
S31508002898BB67FA674FF000024FF00003D7E91E89B5
S315080028A849468B00414643EA917341468A00D7E96F
S315080028B82001FDF785FC02460B461146384BA3FB5B
S315080028C801235B09642202FB03F3CB1A1B0132338B
S315080028D8334AA2FB03235B0903F0F0031C44D7F829
S315080028E8FC3000223B677A67D7E91C8942464B4683
S315080028F89118B9605B41FB60D7E902234146511834
S31508002908396049464B417B604FF000024FF000039F
S31508002918D7E900AB5946CB00514643EA51735146AD
S31508002928CA0010461946034642469B18BB664B46DC
S315080029380A4642EB0303FB66D7F8F4305B680022C5
S315080029483B667A664FF000024FF00003D7E918890C
S3150800295849468B00414643EA917341468A00D7E9BE
S315080029681A01FDF72DFC02460B460D4BA3FB021375
S315080029785B09642101FB03F3D31A1B013233084AA6
S31508002988A2FB03235B0903F00F02D7F8F4301B6890
S3150800299822449A6000BF07F58077BD46BDE8B08F28
S315080029A81F85EB5180B582B000AF264B3B60A82245
S315080029B80021386800F0B4FB3B6803221A613B68BB
S315080029C803225A613B68204A9A613B681F4ADA61C2
S315080029D83B684FF480621A623B6800229A623B6839
S315080029E800225A623B680022DA623B68164A1A666F
S315080029F83B68174A5A663B6810229A663B68002263
S31508002A081A673B680022DA663B6800225A67BFF3F2
S31508002A185F8F00237B600CE07B68C3F10F030D4AC8
S31508002A28D15C3A687B6813440A461A707B68013396
S31508002A387B607B680F2BEFD9BFF35F8F00BF083722
S31508002A48BD4680BD1C010020E8360008C4010020E8
S31508002A58C40500200C37000880B58AB000AFF860B6
S31508002A68B9607A6000233B62FB68DB68FB61FB6838
S31508002A781B69BB61BA69FB699A4205D9BA69FB69D8
S31508002A88D31A013B7B6207E0FB689A68B969FB6958
S31508002A98CB1A1344013B7B62FB689A68FB69D31A15
S31508002AA87A6A934228BF13467B627A6A7B6893429E
S31508002AB828BF13467B62FB685A68FB6913447B6127
S31508002AC87A6AB968786900F0A6FB3A6A7B6A134499
S31508002AD83B62BA687B6A1344BB607A687B6AD31A16
S31508002AE87B60FA697B6A1344FB61FB689B68FA6931
S31508002AF89A4201D10023FB61BFF35F8FFB68FA692D
S31508002B08DA607B68002BB2D13B6A18462837BD467F
S31508002B1880BD80B588B000AFF860B9607A60FB6898
S31508002B28DB68FB61FB689A68FB69D31ABB61BA69FB
S31508002B387B689A4211D9FB685A68FB6913443B615A
S31508002B487A68B968386900F066FBBFF35F8FFA6977
S31508002B587B681A44FB68DA601FE0BB697B61FB681F
S31508002B685A68FB6913443B617A69B968386900F0A1
S31508002B7852FB7A68BB69D31A7B61FB685B683B6161
S31508002B88BA68BB6913447A691946386900F043FB81
S31508002B98BFF35F8FFB687A69DA6000BF2037BD46E6
S31508002BA880BD80B487B000AF78607B681B693B61DD
S31508002BB87B68DB68FB603A69FB689A4208D87B68D9
S31508002BC89A68FB68D21A3B691344013B7B6104E0A7
S31508002BD83A69FB68D31A013B7B617B6918461C373F
S31508002BE8BD465DF8047B704780B588B000AFF860CD
S31508002BF8B9607A60BB68BB61FB685A1C13465B0000
S31508002C081344DB001F4A13447B617B695B69022B0B
S31508002C1829D0022B2ED8002B02D0012B13D029E05D
S31508002C287869FFF7BEFF38613A697B689A4202D22B
S31508002C380023FB6121E07B68FB617A68B9697869DA
S31508002C48FFF767FF19E07869FFF7ABFF38617A681D
S31508002C583B69934228BF1346FB61FA69B9697869E3
S31508002C68FFF757FF09E07A68B9697869FFF7F4FE4C
S31508002C78F86102E00023FB6100BFFB6918462037AC
S31508002C88BD4680BD1C01002080B588B000AFF8603D
S31508002C98B9607A600E4BFB61FB691B78DBB2532B74
S31508002CA801D0FFF77FFEEFF311834FF0200181F380
S31508002CB81188BB617A68B968F868FFF795FF786183
S31508002CC8BB6983F311887B6918462037BD4680BDE2
S31508002CD81C01002080B582B000AF0346FB71FB7962
S31508002CE81846FDF757FF00BF0837BD4680BD80B5B3
S31508002CF882B000AF78600B467B8013467B707B6892
S31508002D08002B01D100230EE07B78012B04D07B78B9
S31508002D18002B01D0002306E07A787B881946786864
S31508002D28FEF79CFA012318460837BD4680BD000001
S31508002D38002310B50446C0E90033C0E904338360AC
S31508002D4881814366C2818361194608225C3000F096
S31508002D58E7F90D4B63620D4BA3620D4BE3620D4B0E
S31508002D6823630D4B24629C4206D003F16802944201
S31508002D7802D0D0339C4205D104F15800BDE8104072
S31508002D8800F046BA10BD00BF792F00089B2F00082F
S31508002D98D32F0008F72F0008D4050020024A034954
S31508002DA8034800F069B800BF0C0000203535000854
S31508002DB81C00002041680C4B994210B5044601D006
S31508002DC800F0B4FBA168094B994202D0204600F0EE
S31508002DD8ADFBE168064B994204D02046BDE8104091
S31508002DE800F0A4BB10BD00BFD40500203C06002097
S31508002DF8A406002010B50B4B0B4C0C4A1A6020464B
S31508002E0800220421FFF794FF04F168000122092132
S31508002E18FFF78EFF04F1D0000222BDE81040122108
S31508002E28FFF786BF0C070020D4050020A52D00084B
S31508002E38014800F0EEB900BF15070020014800F068
S31508002E48E9B900BF1507002010B50446FFF7F0FFDB
S31508002E58236A1BB1BDE81040FFF7F0BF044B236295
S31508002E68044B1B68002BF5D1FFF7C4FFF2E700BF38
S31508002E78BD2D00080C0700202DE9F84307468846AB
S31508002E8814460026D4E90195B9F1010905D524683F
S31508002E98002CF7D13046BDE8F883AB89012B07D952
S31508002EA8B5F90E30013303D029463846C0470643DC
S31508002EB86835E9E7036A70B5846805460E460BB9AE
S31508002EC8FFF7C2FF636EDB0705D4A389980502D40A
S31508002ED8A06D00F09EF9A389190702D52369002B6E
S31508002EE835D12146284600F0C5F880B34FF0FF359E
S31508002EF8636EDA0705D4A3899B0502D4A06D00F092
S31508002F0889F9284670BD002B04DAA2699A4217DCAB
S31508002F180A2915D023685A1C22601970A36816F85E
S31508002F28011F013BA3600029EDD1002B11DA2246C7
S31508002F380A21284600F05FF80130D7D00A25D7E7D6
S31508002F482246284600F057F80130E7D1CEE7013E79
S31508002F58E4E723685A1C22600A221A70EEE7000082
S31508002F68024B01461868FFF7A5BF00BF18000020E6
S31508002F7810B50C46B1F90E1000F0FCF80028ABBFE6
S31508002F88636DA3891B1823F48053ACBF6365A381BB
S31508002F9810BD2DE9F0411F468B89DB0505460C4611
S31508002FA8164605D5B1F90E100223002200F0D0F80E
S31508002FB8A389B4F90E1023F48053A38132463B46FD
S31508002FC82846BDE8F04100F0E7B810B50C46B1F957
S31508002FD80E1000F0BDF8431CA38915BF606523F4DD
S31508002FE8805343F48053A38118BFA38110BDB1F958
S31508002FF80E1000F09DB8F8B50E461446054618B1E9
S31508003008036A0BB9FFF720FFA369A360A3891A0708
S3150800301801D5236943B92146284600F02BF818B18B
S315080030284FF0FF373846F8BD23682269981A63694E
S31508003038F6B28342374605DC2146284600F076FA7A
S315080030480028EDD1A368013BA36023685A1C2260B7
S315080030581E706269431C9A4204D0A389DB07E1D52E
S315080030680A2EDFD12146284600F060FA0028D9D072
S31508003078D6E7000038B5294B054618680C4618B136
S31508003088036A0BB9FFF7E0FEB4F90C30190722D426
S31508003098DA0607D409222A6043F04003A3814FF0D1
S315080030A8FF3033E0580712D5616B41B104F1440388
S315080030B8994202D0284600F0BDF800236363A38925
S315080030C823F02403A3810023636023692360A3896B
S315080030D843F00803A38123694BB9A38903F4207332
S315080030E8B3F5007F03D02146284600F06DFAB4F9F7
S315080030F80C3013F001020AD00022A260626952421B
S31508003108A261226942B913F08000C5D138BD990772
S3150800311858BF6269A260F4E70020F7E718000020A4
S3150800312802440346934200D1704703F8011BF9E7A6
S3150800313838B5064D0023044608462B60FDF711FCF2
S31508003148431C02D12B6803B1236038BD1007002041
S3150800315838B5074D04460846114600222A601A461D
S31508003168FDF726FC431C02D12B6803B1236038BD42
S315080031781007002038B5074D0446084611460022B0
S315080031882A601A46FDF7D0FB431C02D12B6803B107
S31508003198236038BD1007002038B5074D0446084691
S315080031A8114600222A601A46FDF7A0F9431C02D1E7
S315080031B82B6803B1236038BD10070020014B186837
S315080031C8704700BF1800002070B50D4D0D4C641BE4
S315080031D8A4100026A64209D10B4D0C4C00F062FA41
S315080031E8641BA4100026A64205D170BD55F8043BF9
S315080031F898470136EEE755F8043B98470136F2E753
S315080032082837000828370008283700082C37000808
S315080032187047704770470A44914200F1FF3300D15E
S31508003228704710B511F8014B03F8014F9142F9D1CF
S3150800323810BD000038B50546002941D051F8043CB0
S315080032480C1F002BB8BFE41800F0E0F81D4A1368F5
S3150800325833B9636014602846BDE8384000F0DCB826
S31508003268A34208D9206821188B4201BF19685B68F0
S3150800327809182160EDE71A465B680BB1A342FAD92B
S3150800328811685018A0420BD120680144501883428F
S315080032981160E0D118685B68536008441060DAE783
S315080032A802D90C232B60D6E7206821188B4204BF65
S315080032B819685B68636004BF091821605460CAE727
S315080032C838BD00BF1C07002070B50F4E0C46316884
S315080032D8054611B900F0D6F930602146284600F0AF
S315080032E8D1F9431C03D14FF0FF34204670BDC41CE6
S315080032F824F00304A042F8D0211A284600F0C2F99F
S315080033080130F2D1EFE700BF180700202DE9F8438E
S31508003318CD1C25F0030508350C2D38BF0C25002DC6
S31508003328064601DBA94204D90C2333600020BDE810
S31508003338F883DFF8D48000F069F8D8F800301C461E
S3150800334844BB29463046FFF7BFFF431C044658D1FD
S31508003358D8F800402746002F43D1002C4BD02368C5
S315080033683946304604EB030900F08CF9814542D109
S3150800337821686D1A29463046FFF7A6FF01303AD06C
S3150800338823682B442360D8F800305A6862BBC8F80B
S3150800339800700FE02268521B20D40B2A17D961192E
S315080033A8A342256018BF5960636808BFC8F80010AB
S315080033B862514B60304600F02FF804F10B00231DCC
S315080033C820F00700C21A1CBF1B1AA350AFE7626891
S315080033D8A3420CBFC8F800205A60EBE72346646886
S315080033E8AEE73C467F68B6E71A465B68A342FBD158
S315080033F800235360DEE70C233360304600F00CF8F0
S3150800340894E70560D6E700BF1C0700200148FFF7C8
S3150800341800BF00BF140700200148FFF7FBBE00BF26
S3150800342814070020B1F90C202DE9F04116070546C6
S315080034380C4654D44B68002B02DC0B6C002B48DD79
S31508003448E66A002E45D0002312F480522F68216AB6
S315080034582B6030D0626DA389590705D56368D21ADF
S31508003468636B0BB1236CD21A0023E66A216A2846D5
S31508003478B047431CA38906D129681D292BD82A4A8F
S31508003488CA40D60727D500226260D9042269226075
S3150800349804D5421C01D12B6803B96065616B2F609E
S315080034A8B9B104F14403994202D02846FFF7C2FE8F
S315080034B8002363630DE001232846B0470246501CE3
S315080034C8C9D12B68002BC6D01D2B01D0162B1ED1AF
S315080034D82F60002022E043F040031BB21BE00F696F
S315080034E8002FF6D093070E6808BF4B690F6018BF00
S315080034F80023A6EB07088B60B8F1000FE9DD216AFF
S31508003508A66A43463A462846B047002808DCB4F96E
S315080035180C3043F04003A3814FF0FF30BDE8F0813B
S315080035280744A8EB0008E7E70100402038B50B690F
S3150800353805460C4613B90025284638BD18B1036A4E
S315080035480BB9FFF781FCB4F90C30002BF3D0626E87
S31508003558D00704D4990502D4A06DFFF75AFE284669
S315080035682146FFF75FFF636EDA070546E4D4A389A9
S315080035789B05E1D4A06DFFF74DFEDDE770B50C4657
S31508003588B1F90E10002996B015461E460DDAA3891C
S3150800359813F0800F4FF0000114BF40234FF48063E7
S315080035A8002031602B6016B070BD6A4600F048F8F6
S315080035B80028ECDB019901F47041A1F50053594242
S315080035C859414FF48063EBE78B89F7B59D070646A3
S315080035D80C4607D504F14703236023610123636179
S315080035E803B0F0BD01AB6A46FFF7C8FF009F054662
S315080035F839463046FFF78AFE48B9B4F90C309A05B9
S31508003608EED423F0030343F00203A381E2E7A38978
S31508003618206043F08003A381019BC4E904075BB1DA
S31508003628B4F90E10304600F01DF828B1A38923F026
S31508003638030343F00103A381A3891D43A581CFE7AB
S3150800364838B5074D00230446084611462B60FDF792
S3150800365894F9431C02D12B6803B1236038BD00BF17
S315080036681007002038B5064D0023044608462B6087
S31508003678FDF793F9431C02D12B6803B1236038BDC3
S315080036881007002038B5064D0023044608462B6067
S31508003698FDF79CF9431C02D12B6803B1236038BD9A
S315080036A810070020F8B500BFF8BC08BC9E4670474E
S311080036B8F8B500BFF8BC08BC9E46704779
S315080036C43D3D3D3D3D2053544D333246343037203D
S315080036D447505320547261636B6572203D3D3D3DEE
S315080036E43D0000005465726D696E616C000000004F
S315080036F40000000000000000010203040607080990
S3150800370400000000010203040000000000005454F5
S311080037145220524547474553000000006C
S30D08003720D8CAFF7F0100000072
S30908003728AD010008D9
S3090800372C89010008F9
S315080037300024F40010000000010000000000000052
S3150800374003000000D40500201C0000200000000033
S31508003750D40500203C060020A40600200000000036
S31508003760000000000000000000000000000000004B
S31508003770000000000000000000000000000000003B
S31508003780000000000000000000000000000000002B
S30D08003790000000000000000023
S70508000A6583
